S00D0000426C616E6B2E737265632F
S113000045C0000060C000005EC000005CC000008D
S11300105AC0000058C0000056C0000054C0000080
S113002052C0000050C000004EC000004CC0000090
S11300304AC0000048C0000046C0000044C00000A0
S113004042C0000040C0000080C100003CC000006D
S11300503AC0000038C0000036C0000034C00000C0
S113006032C0000030C000002EC000002CC00000D0
S11300702AC0000028C0000026C0000024C00000E0
S113008022C0000020C000001EC0000011241FBEBA
S1130090CFEFD0E4DEBFCDBF11E0A0E0B1E0E8EBEC
S11300A0F4E000E00BBF02C007900D92A230B1074C
S11300B0D9F721E0A2E0B1E001C01D92AB30B20754
S11300C0E1F738D1F7C19CCFD2D1BC01990F880B8D
S11300D0990B18D023E23BED49EF5EE352C008953B
S11300E0089A109808958CE1EFDF20E030E04CE0AE
S11300F052E443D0181614F4109A089510980895F1
S1130100E89409C097FB3EF49095809570956195AD
S11301107F4F8F4F9F4F9923A9F0F92F96E9BB2763
S11301209395F695879577956795B795F111F8CFDF
S1130130FAF4BB0F11F460FF1BC06F5F7F4F8F4F4A
S11301409F4F16C0882311F096E911C0772321F040
S11301509EE8872F762F05C0662371F096E8862FD8
S113016070E060E02AF09A95660F771F881FDAF72F
S1130170880F9695879597F9089566D008F48FEFC0
S113018008950BD09CC08DD028F092D018F0952300
S113019009F07EC083C01124C6C0A2D0A0F3959FED
S11301A0D1F3950F50E0551F629FF001729FBB275A
S11301B0F00DB11D639FAA27F00DB11DAA1F649F06
S11301C06627B00DA11D661F829F2227B00DA11DB9
S11301D0621F739FB00DA11D621F839FA00D611D3F
S11301E0221F749F3327A00D611D231F849F600D60
S11301F0211D822F762F6A2F11249F5750408AF099
S1130200E1F088234AF0EE0FFF1FBB1F661F771F24
S1130210881F91505040A9F79E3F510570F038C097
S113022082C05F3FECF3983EDCF386957795679543
S1130230B795F795E7959F5FC1F7FE2B880F911D42
S11302409695879597F90895990F0008550FAA0B6D
S1130250E0E8FEEF16161706E807F907C0F01216D5
S11302601306E407F50798F0621B730B840B950BD8
S113027039F40A2661F0232B242B252B21F408952D
S11302800A2609F4A140A6958FEF811D811D0895CA
S113029097F99F6780E870E060E008959FEF80EC35
S11302A0089500240A9416161706180609060895D8
S11302B000240A9412161306140605060895092E3E
S11302C00394000C11F4882352F0BB0F40F4BF2BAD
S11302D011F460FF04C06F5F7F4F8F4F9F4F0895ED
S11302E057FD9058440F551F59F05F3F71F04795E3
S11302F0880F97FB991F61F09F3F79F087950895C8
S1130300121613061406551FF2CF4695F1DF08C0E6
S1130310161617061806991FF1CF86957105610503
S113032008940895E894BB2766277727CB0197F9AB
S11303300895089554D0FDDFD3DEC0E0D0E0D3DECD
S11303402097E9F30E940000FACF1F920F920FB694
S11303500F9211242F933F938F939F93AF93BF9347
S11303608091030190910401A0910501B0910601CF
S11303703091020123E0230F2D3720F40196A11DB3
S1130380B11D05C026E8230F0296A11DB11D2093BF
S113039002018093030190930401A0930501B0939B
S11303A006018091070190910801A0910901B09183
S11303B00A010196A11DB11D8093070190930801C4
S11303C0A0930901B0930A01BF91AF919F918F91BE
S11303D03F912F910F900FBE0F901F901895789416
S11303E084B5826084BD84B5816084BD85B5826036
S11303F085BD85B5816085BDEEE6F0E080818160D4
S11304008083E1E8F0E010828081826080838081D3
S113041081608083E0E8F0E0808181608083E1EBAB
S1130420F0E0808184608083E0EBF0E08081816093
S11304308083E1E9F0E08081826080838081816053
S11304408083E0E9F0E0808181608083EAE7F0E086
S113045080818460808380818260808380818160E8
S113046080838081806880831092C10008958830E1
S113047038F0883120F09FE1981B892F01C08FEF5D
S11304802091000190E4299F900111248770822B10
S113049080937C0080917A00806480937A008091BC
S11304A07A0086FDFCCF809178002091790090E05D
S10B04B0922B0895F894FFCF8C
S10504B801003D
S9030000FC
