S00D0000426C616E6B2E737265632F
S113000047C000006CC000006AC0000068C0000067
S113001066C0000064C0000062C0000060C0000050
S11300205EC000005CC000005AC0000058C0000060
S113003056C0000054C0000052C0000050C0000070
S11300404EC000004CC0000077C2000048C0000051
S113005046C0000044C0000042C0000040C0000090
S11300603EC000003CC0000091C0000038C0000049
S113007036C0000034C0000032C0000030C00000B0
S11300802EC000002CC000002AC0000078008D02A1
S113009011241FBECFEFD0E4DEBFCDBF11E0A0E03E
S11300A0B1E0E6EBF6E000E00BBF02C007900D9272
S11300B0A031B107D9F721E0A0E1B1E001C01D9260
S11300C0A43EB207E1F710E0C8E4D0E003C02197F2
S11300D0FE01E6D2C634D107D1F723D2EAC290CFCB
S11300E040E85AE166E070E080E191E013C20895CF
S11300F080E191E0FFC19B01AC0160E074E284EF18
S113010090E0ACD2DA01C9014097A109B109B695D2
S1130110A795979587958093B800089540913E01DF
S1130120262F30E0240F311D21323105DCF42091DB
S113013089012430C9F4FC0180E090E0861758F46A
S113014030913E012191DC01A05CBE4FA30FB11D93
S11301502C930196F3CF80913E01680F60933E018A
S113016080E0089581E0089582E0089585ED80930C
S1130170BC008091BC0084FDFCCF109289010895DD
S113018085EC8093BC001092890108951F920F9210
S11301900FB60F9211240BB60F922F933F934F93E8
S11301A05F936F937F938F939F93AF93BF93EF93DB
S11301B0FF938091B900887F803609F49DC070F563
S11301C0883209F45CC090F4803109F455C038F4E5
S11301D0882309F4F3C0883009F44EC0F2C0883192
S11301E009F44DC0803209F45EC0EBC0803409F4D8
S11301F069C050F4803309F456C0883309F0E1C073
S113020080931C01BDDFDDC0803509F44FC0883503
S113021009F45DC0883409F0D4C0D2C0883909F427
S1130220C3C0A8F4883709F467C038F4883609F4E1
S113023063C0803709F460C0C4C0883809F4B4C00E
S1130240803909F45FC0803809F0BBC05BC0803BD3
S113025009F482C038F4803A09F466C0883A09F493
S11302607BC0AFC0803C09F4A3C0883C09F4A0C0A3
S1130270883B09F486C0A5C08091880110C0909184
S1130280610180916001981770F5E091610181E04E
S11302908E0F80936101F0E0EE59FE4F80818093D0
S11302A0BB0085EC82C080931C018AC0E09161018F
S11302B081E08E0F809361018091BB00F0E0EE59E4
S11302C0FE4F808390916101809160016AC0E0914A
S11302D0610181E08E0F809361018091BB00F0E0A9
S11302E0EE59FE4F808380918701811169C081E0BE
S11302F08093860184EA5DC083E080938901109233
S11303001D01CFCF80911D01803208F04DC0E091D6
S11303101D0181E08E0F80931D018091BB00F0E0F0
S1130320E25EFE4F8083BDCF2BDF80911D018032C2
S113033030F4E0911D01F0E0E25EFE4F1082609126
S11303401D0170E0E0918201F09183018EE191E062
S1130350099510921D0135C084E0809389011092A3
S11303603F0110923E01E0918401F09185010995CD
S113037080913E01811105C081E080933E0110927D
S11303804001E0913F0181E08E0F80933F01F0E056
S1130390E05CFE4F80818093BB0090913F0180918F
S11303A03E01981708F47DCF85E88093BC0009C00E
S11303B085EC8093BC001092890103C010921C014B
S11303C0D5DEFF91EF91BF91AF919F918F917F9176
S11303D06F915F914F913F912F910F900BBE0F90B2
S11303E00FBE0F901F9018958091B90190E0209155
S11303F0BA01821B910908959091BA018091B901C3
S1130400981750F4E92FF0E0E554FE4F208130E0D6
S11304109F5F9093BA0102C02FEF3FEFC901089587
S1130420E091BA018091B901E81730F4F0E0E554A5
S1130430FE4F808190E008958FEF9FEF0895089517
S1130440CF92DF92EF92FF920F931F93CF93DF939C
S11304507C01CB018A0120919601222389F0EB01D2
S11304606B01C40ED51ECC15DD0561F06991D70171
S1130470ED91FC910190F081E02DC7010995F3CF36
S1130480642F4CDEC801DF91CF911F910F91FF9033
S1130490EF90DF90CF900895CF93DF931F92CDB765
S11304A0DEB76983209196012223D1F02091970130
S11304B0203240F021E030E0FC013383228380E0ED
S11304C090E014C080919801E82FF0E0E756FE4FC9
S11304D0998190838F5F809398018093970104C0E2
S11304E061E0CE0101961ADE81E090E00F90DF9189
S11304F0CF910895FC011382128288EE93E0A0E06C
S1130500B0E084839583A683B78384E091E09183EC
S113051080830895CB01BA01EECD8AE891E0EACF59
S1130520089554D0FDDFDCDDC0E0D0E0E0DD2097AD
S1130530E9F30E940000FACF1F920F920FB60F92B8
S113054011242F933F938F939F93AF93BF938091E5
S1130550DC019091DD01A091DE01B091DF013091C9
S1130560DB0123E0230F2D3720F40196A11DB11DDB
S113057005C026E8230F0296A11DB11D2093DB01BF
S11305808093DC019093DD01A093DE01B093DF0141
S11305908091E0019091E101A091E201B091E30129
S11305A00196A11DB11D8093E0019093E101A093F8
S11305B0E201B093E301BF91AF919F918F913F917D
S11305C02F910F900FBE0F901F901895789484B5BB
S11305D0826084BD84B5816084BD85B5826085BD3B
S11305E085B5816085BDEEE6F0E080818160808321
S11305F0E1E8F0E010828081826080838081816004
S11306008083E0E8F0E0808181608083E1EBF0E0CA
S1130610808184608083E0EBF0E08081816080836E
S1130620E1E9F0E080818260808380818160808361
S1130630E0E9F0E0808181608083EAE7F0E0808196
S113064084608083808182608083808181608083F4
S11306508081806880831092C1000895A1E21A2EDF
S1130660AA1BBB1BFD010DC0AA1FBB1FEE1FFF1F52
S1130670A217B307E407F50720F0A21BB30BE40BA2
S1130680F50B661F771F881F991F1A9469F76095E9
S11306907095809590959B01AC01BD01CF010895A3
S11306A0EE0FFF1F0024001C0BBE0790F691E02DF7
S10906B00994F894FFCF49
S11306B6000000004C022002F401FC0110021F029B
S9030000FC
