:1000000046C000006BC0000069C0000067C000006F
:1000100065C0000063C0000061C000005FC0000058
:100020005DC000005BC0000059C0000057C0000068
:1000300055C0000053C0000051C000004FC0000078
:100040004DC000004BC00000BEC2000047C0000011
:10005000C7C10000FBC1000041C000003FC000005C
:100060003DC000003BC0000039C0000037C00000A8
:1000700035C0000033C0000031C000002FC00000B8
:100080002DC000002BC0000029C000005802112420
:100090001FBECFEFD0E4DEBFCDBF11E0A0E0B1E0E6
:1000A000E4E4F7E000E00BBF02C007900D92AE322F
:1000B000B107D9F721E0AEE2B1E001C01D92AA3D3F
:1000C000B207E1F710E0C7E4D0E003C02197FE01DA
:1000D0002ED3C634D107D1F719D232C391CF26E03F
:1000E00040E855E260E070E084E391E016D160E022
:1000F00071E084E391E057D26CE071E084E391E039
:100100004ED2089A10980895CF9384E391E031D0AD
:10011000892BD9F384E391E046D080932E018D3072
:1001200071F0C0912F0181E08C0F80932F0184E347
:1001300091E039D0EC2FF0E0E05DFE4F8083E0E30A
:10014000F1E0809130018F3491F4809131018E344F
:1001500011F4109A07C0863451F48091320186342C
:1001600031F4109884E0DF011D928A95E9F7CF9170
:100170000895FC01918D228D892F90E0805C9F4F26
:10018000821B91098F7399270895FC01918D828DAF
:10019000981731F0828DE80FF11D858D90E008955C
:1001A0008FEF9FEF0895FC01918D828D981761F07C
:1001B000828DDF01A80FB11D5D968C91928D9F5F9E
:1001C0009F73928F90E008958FEF9FEF08958FE4D3
:1001D00092E0892B39F080E090E0892B19F05FD113
:1001E00081110DC080E090E0892B71F080E090E0FB
:1001F000892B51F00E940000811104C008950E94D3
:100200000000F0CF0C9400000895FC01848DDF0104
:10021000A80FB11DA35ABF4F2C91848D90E0019679
:100220008F739927848FA689B7892C93A089B18968
:100230008C9180648C93938D848D981306C0028872
:10024000F389E02D80818F7D80830895EF92FF9266
:100250000F931F93CF93DF93EC0181E0888F9B8DE9
:100260008C8D981305C0E889F989808185FD23C0AC
:10027000F62E0B8D10E00F5F1F4F0F731127E02E2E
:100280008C8DE8120BC00FB607FCFACFE889F9890C
:10029000808185FFF5CFCE01B8DFF2CF8B8DFE01D7
:1002A000E80FF11DE35AFF4FF0820B8FEA89FB89BB
:1002B0008081806207C0EE89FF896083E889F989BF
:1002C00080818064808381E090E0DF91CF911F91F5
:1002D0000F91FF90EF900895CF93DF93EC01888DFD
:1002E0008823C1F0EA89FB89808185FD05C0A88942
:1002F000B9898C9186FD0EC00FB607FCF5CF8081C1
:1003000085FFF2CFA889B9898C9185FFEDCFCE0109
:100310007CDFE8CFDF91CF910895CF92DF92EF920B
:10032000FF921F93CF93DF93EC016A017B01122FA1
:10033000E889F98982E080834115514E6105710594
:10034000A9F060E079E08DE390E0A7019601CDD1BE
:10035000DA01C9010197A109B109B695A795979549
:1003600087959C01211580E13807A0F0E889F9897B
:10037000108260E874E88EE190E0A7019601B5D1A3
:10038000DA01C9010197A109B109B695A795979519
:1003900087959C01EC85FD853083EE85FF85208364
:1003A000188EEC89FD891083EA89FB898081806140
:1003B0008083EA89FB89808188608083EA89FB8960
:1003C000808180688083EA89FB8980818F7D80833A
:1003D000DF91CF911F91FF90EF90DF90CF90089524
:1003E0001F920F920FB60F9211240BB60F922F93FC
:1003F0008F939F93EF93FF93E0914401F091450118
:100400008081E0914A01F0914B0182FD12C0908100
:1004100080914D018F5F8F7320914E01821751F0B3
:10042000E0914D01F0E0EC5CFE4F958F80934D0123
:1004300001C08081FF91EF919F918F912F910F903B
:100440000BBE0F900FBE0F901F9018951F920F922A
:100450000FB60F9211240BB60F922F933F934F9329
:100460005F936F937F938F939F93AF93BF93EF931C
:10047000FF9384E391E0C9DEFF91EF91BF91AF91CB
:100480009F918F917F916F915F914F913F912F91AC
:100490000F900BBE0F900FBE0F901F90189584E326
:1004A00091E067DE21E0892B09F420E0822F089596
:1004B000E4E3F1E01382128288EE93E0A0E0B0E082
:1004C00084839583A683B78382E191E091838083BF
:1004D00085EC90E09587848784EC90E09787868709
:1004E00080EC90E0918B808B81EC90E0938B828B01
:1004F00082EC90E0958B848B86EC90E0978B868BDA
:10050000118E128E138E148E08950895A6D0FDDFDD
:10051000E6DDC7EED0E0F8DD2097E9F358DEFBCF4B
:10052000CF92DF92EF92FF920F931F93CF93DF93BF
:100530006C017A018B01C0E0D0E0CE15DF0581F0BF
:10054000D8016D918D01D601ED91FC910190F08162
:10055000E02DC6010995892B11F02196EECF7E0181
:10056000C701DF91CF911F910F91FF90EF90DF9026
:10057000CF9008956115710579F0FB01019000207D
:10058000E9F73197AF01461B570BDC01ED91FC9168
:100590000280F381E02D099480E090E00895EACF95
:1005A0006EE171E0E7CF0F931F93CF93DF93EC01E0
:1005B000E1DF8C01CE01F4DF800F911FDF91CF913D
:1005C0001F910F9108951F920F920FB60F92112451
:1005D0002F933F938F939F93AF93BF938091D201BB
:1005E0009091D301A091D401B091D5013091D10166
:1005F00023E0230F2D3720F40196A11DB11D05C066
:1006000026E8230F0296A11DB11D2093D1018093EE
:10061000D2019093D301A093D401B093D5018091DE
:10062000D6019091D701A091D801B091D90101963E
:10063000A11DB11D8093D6019093D701A093D8013D
:10064000B093D901BF91AF919F918F913F912F911D
:100650000F900FBE0F901F901895789484B582600C
:1006600084BD84B5816084BD85B5826085BD85B556
:10067000816085BDEEE6F0E0808181608083E1E805
:10068000F0E010828081826080838081816080833D
:10069000E0E8F0E0808181608083E1EBF0E0808140
:1006A00084608083E0EBF0E0808181608083E1E919
:1006B000F0E0808182608083808181608083E0E9D6
:1006C000F0E0808181608083EAE7F0E080818460EF
:1006D000808380818260808380818160808380814B
:1006E000806880831092C1000895A1E21A2EAA1B8F
:1006F000BB1BFD010DC0AA1FBB1FEE1FFF1FA217D2
:10070000B307E407F50720F0A21BB30BE40BF50BCE
:10071000661F771F881F991F1A9469F76095709557
:10072000809590959B01AC01BD01CF010895EE0F1E
:10073000FF1F0024001C0BBE0790F691E02D0994CA
:04074000F894FFCF5B
:1007440048656C6C6F20576F726C64003E0000004B
:10075400000026019002B900D300C5006C010D0A07
:0E076400006E616E00696E66006F76660000C2
:00000001FF
