:1000000045C0000053C0000051C000004FC00000B8
:100010004DC000004BC0000049C0000047C00000B8
:1000200045C0000043C0000041C000003FC00000C8
:100030003DC000003BC0000039C0000037C00000D8
:1000400035C0000033C0000041C000002FC00000D8
:100050002DC000002BC0000029C0000027C00000F8
:1000600025C0000023C0000021C000001FC0000008
:100070001DC000001BC0000019C0000017C0000018
:1000800015C0000013C0000011C0000011241FBEE5
:10009000CFEFD0E4DEBFCDBF21E0A0E0B1E001C0F2
:1000A0001D92A930B207E1F706D0A2C0A9CF11B8BE
:1000B00008950895089554D0FDDFF9DFC0E0D0E041
:1000C000F8DF2097E9F30E940000FACF1F920F9209
:1000D0000FB60F9211242F933F938F939F93AF935B
:1000E000BF938091010190910201A0910301B09111
:1000F00004013091000123E0230F2D3720F40196F5
:10010000A11DB11D05C026E8230F0296A11DB11D3A
:10011000209300018093010190930201A0930301B9
:10012000B09304018091050190910601A09107010F
:10013000B09108010196A11DB11D80930501909316
:100140000601A0930701B0930801BF91AF919F9161
:100150008F913F912F910F900FBE0F901F90189588
:10016000789484B5826084BD84B5816084BD85B592
:10017000826085BD85B5816085BDEEE6F0E0808159
:1001800081608083E1E8F0E010828081826080837A
:10019000808181608083E0E8F0E0808181608083FD
:1001A000E1EBF0E0808184608083E0EBF0E080812F
:1001B00081608083E1E9F0E08081826080838081DA
:1001C00081608083E0E9F0E0808181608083EAE7FC
:1001D000F0E0808184608083808182608083808180
:1001E000816080838081806880831092C10008953F
:0401F000F894FFCFB1
:00000001FF
