:10000000B2C00000DAC00000D8C00000D6C00000B6
:10001000D4C00000D2C00000D0C00000CEC000009C
:10002000CCC00000CAC00000C8C00000C6C00000AC
:10003000C4C00000C2C00000C0C00000BEC00000BC
:10004000BCC00000BAC000000C94420BB6C0000057
:100050000C943A0A0C94700AB0C00000AEC00000C4
:10006000ACC00000AAC0000085C50000A6C000000A
:10007000A4C00000A2C00000A0C000009EC00000FC
:100080009CC000009AC0000098C00000840C890C3D
:100090008E0C980CC60CC60CA20CAA0CB20CBC0C94
:1000A000E20CE50CD80CDC0CFC0CFC0CE90CED0CA7
:1000B000F30CF70C496E7465727275707473206E70
:1000C0006F7420737570706F72746564206F6E202A
:1000D0007468697320706C6174666F726D0A0000D9
:1000E0000000010200090A000000000403080700E4
:1000F00000000000000000000000000000000001FF
:1001000002040810204080010204081020408001F1
:1001100002040810204080804020100804020102E0
:10012000020202020202020404040404040404039E
:1001300003030303030303010101010101010100A2
:1001400000200023002600290000002200250028AE
:10015000002B0000002100240027002A0000E901F4
:10016000A507A20AF70111241FBECFEFD0E4DEBF1E
:10017000CDBF11E0A0E0B1E0E8E4FEE100E00BBF9C
:1001800002C007900D92AE35B107D9F722E0AEE577
:10019000B1E001C01D92AC3FB207E1F710E0C2EB45
:1001A000D0E004C02197FE010E94EE0DCF3AD107A6
:1001B000C9F70E94D00A0C94180F22CF80E008954E
:1001C000CF92DF92EF92FF92BC018FEF93E00E94FB
:1001D000DB0D072E000C880B990B89D720E030E04F
:1001E00040E85FE3B5D66B017C016091100170912E
:1001F0001101072E000C880B990B79D7A7019601E6
:100200000E940309FF90EF90DF90CF900895CF9266
:10021000DF92EF92FF920F931F93CF93DF93D82F2C
:10022000C62F00E010E0C12CD12C760160910801AE
:100230007091090106171707C4F48D2F0E943D0C19
:10024000BFDF9B01AC01C701B60183D66B017C0106
:100250006091060170910701072E000C880B990B25
:100260000E94B10B0F5F1F4FE1CF072E000C880BD0
:10027000990B3DD79B01AC01C701B601CED66B01EE
:100280007C01C13069F038F0C230D1F460910A01CC
:1002900070910B0109C060910E0170910F0104C0B3
:1002A00060910C0170910D01072E000C880B990BC9
:1002B0001ED79B01AC01C701B601AFD66B017C0113
:1002C000C701B601DF91CF911F910F91FF90EF9081
:1002D000DF90CF900895CF93DF9320E843E062E072
:1002E00083E891E032D160E080E091DF60937701B4
:1002F000709378018093790190937A0140E050E007
:100300006FE170E08AE691E0ABD240E050E06DE052
:1003100070E08AE691E0BCD240E050E065E070E039
:100320008AE691E0CDD262E572E08AE691E0E0D221
:1003300062E08AE691E0DED240E050E066E272E000
:100340008AE691E0D9D28AE691E046D281111CC0BA
:10035000C4E1D0E060E08DE00E94390D64E670E019
:1003600080E090E00E94B10B61E08DE00E94390DC9
:1003700064E670E080E090E00E94B10B219751F7B5
:1003800061E08DE00E94390D8EE591E0EED18EE5C1
:1003900091E010D18EE591E04BD140E060E08EE538
:1003A00091E052D16CE171E08EE591E00E94410B49
:1003B00068EB7BE080E090E00E94B10B8EE591E07D
:1003C00037D140E060E08EE591E0DF91CF913CC114
:1003D000089583E891E011D061E070E08AE691E051
:1003E000C5D122E040E167E28EE591E0C3C083E839
:1003F00091E000C008950C94DD0AFC0181E391E0D6
:1004000091838083158216821782108680E090E0A7
:10041000A0E8BFE381879287A387B4870895FC0192
:1004200083810E94670D21E0892B09F020E0822F53
:100430000895CF92DF92EF92FF92CF93DF93EC017A
:100440006A017B01CE01EBDF811105C0C701B60156
:100450000E94B10BF7CFDF91CF91FF90EF90DF902B
:10046000CF900895CF92DF92EF92FF920F931F9358
:10047000CF93DF93EC0140E050E0BA01DADFEFB652
:10048000F89441E06A818B810E948F0D082F41E032
:100490006A818B810E948F0D182F41E06A818B81C8
:1004A0000E948F0DF82EC12CD12C8C8190E0C816A3
:1004B000D90660F461E08A810E94390D60E08A818A
:1004C0000E94390D2FEFC21AD20AEFCFEFBE812F53
:1004D00090E0A0E0B0E0BA2FA92F982F8827A02B9A
:1004E000AC01BD014F29802F880F880B90E0A0E060
:1004F000B0E0B82FAA27992788278A019B01082BEB
:10050000192B2A2B3B2BC901B801DF91CF911F91E9
:100510000F91FF90EF90DF90CF900895CF93DF93EE
:10052000EC01603441F0603821F0603231F482E057
:1005300003C081E001C083E08C8360E08A810E9477
:10054000390DCE01DF91CF918DCF1F93CF93DF93E4
:10055000EC01842F122F4A836B8361E00E94FD0C13
:1005600060E08B810E94FD0C612FCE01DF91CF9165
:100570001F91D4CFFC011382128289E391E0918311
:100580008083648341872287138608951F93CF93C6
:10059000DF93EC01162F6C8180E092E0B8D46B857C
:1005A000612B80E092E06CD480E092E0DF91CF910B
:1005B0001F91C9C428E0FC01238760E0E7CF0F93B7
:1005C0001F93CF938C01C62F6460E0DF81E090E041
:1005D0000E94EA0B6C2F6B7FC801D8DF82E390E0AA
:1005E000CF911F910F910C94EA0B1F93CF93DF9340
:1005F000EC01162FCBDF612FCE01DF91CF911F9140
:10060000DECF0F931F93CF93DF938C01C62FD42F90
:10061000607F642BEADF80E1C89FB00111246D2B5D
:10062000C801DF91CF911F910F91DFCF40E0E9CF5B
:1006300061E0FCDF80ED97E00C94EA0B62E0F6DF0E
:1006400080ED97E00C94EA0BCF93DF93CDB7DEB744
:1006500028970FB6F894DEBF0FBECDBF9C0188E08F
:10066000E4E1F1E0DE01119601900D928A95E1F747
:10067000F9018085841710F44FEF480FFE01319681
:10068000E40FF11DE40FF11D9081690F6068C9014D
:1006900028960FB6F894DEBF0FBECDBFDF91CF9185
:1006A000C5CFFC016681262F246026836C60BECFF7
:1006B00041E0A7DF81E090E00895CF93DF93EC0164
:1006C000423018F08D8188608D834887222329F07D
:1006D000413019F48D8184608D8362E370E080E0A5
:1006E00090E00E94B10B6B85CE0150DF68EE73E0A5
:1006F00080E090E00E94B10B60E3CE0176DF84E9F8
:1007000091E10E94EA0B60E3CE016FDF84E991E1A1
:100710000E94EA0B60E3CE0168DF86E990E00E9468
:10072000EA0B60E2CE0161DF6D816062CE017EDFA7
:1007300084E08E83CE01B5DFCE017ADF82E08F8345
:1007400066E0CE0173DFCE01DF91CF9177CFCF93FB
:10075000DF93EC0180E092E0D1D31D8220E04A8556
:100760006985CE01DF91CF91A8CFF1CFAF92BF9233
:10077000CF92DF92EF92FF920F931F93CF93DF936D
:10078000EC018B01099644D1D0939101C093900163
:1007900009835801BB242CE3029FC00111240CD70C
:1007A0006C018C01E12CF12CEA14FB0441F0C8012E
:1007B000EAD0045C1F4F8FEFE81AF80AF5CFCA821F
:1007C000DB82DF91CF911F910F91FF90EF90DF902F
:1007D000CF90BF90AF900895EF92FF920F931F9329
:1007E000CF93DF93EC0100E010E0E12CF12C898144
:1007F00090E0E816F9065CF48A819B81800F911FD6
:10080000EAD08FEFE81AF80A045C1F4FF0CF84D7C4
:10081000DC01CB018053984FAF4FBF4F8C839D833A
:10082000AE83BF831886188280911201811102C0A5
:1008300011E00EC0C3DC182F8111FACFCE0109964A
:10084000F3D0009719F064EB70E0F7D681E088836D
:10085000812FDF91CF911F910F91FF90EF9008951D
:10086000FC0157FD14C0218130E0421753070CF4FE
:100870009A014217530759F42CE3249FC001259F86
:10088000900D112422813381820F931F90C008950F
:10089000FC0157FD14C0218130E0421753070CF4CE
:1008A0009A014217530759F42CE3249FC001259F56
:1008B000900D112422813381820F931F7CC00895F3
:1008C000FC0157FD14C0218130E0421753070CF49E
:1008D0009A014217530759F42CE3249FC001259F26
:1008E000900D112422813381820F931F68C00895D7
:1008F000099696C009969CC0FC0157FD14C0218141
:1009000030E0421753070CF49A014217530759F489
:100910002CE3249FC001259F900D11242281338157
:10092000820F931F50C00895FC01DC015C96C096B5
:100930001D921D92A817B907D9F71586178216823E
:100940008EEE92E093878287148610AA11AA12AACB
:1009500013AA148A158A168A178A80E092E095AB4A
:1009600084AB97AB86AB86E292E0918B808B91AFA4
:1009700080AF84E690E0938B828B81E082AF13AEF0
:100980001786168608952FE130E0FC01318320831D
:100990002FEF3FEF338322833583248342E050E0FF
:1009A00060E070E0408F518F628F738FBDCFFC018C
:1009B000718360830895FC01738362830895FC0151
:1009C000758364830895F894FC01718B608B71AF1B
:1009D00060AF78940895CF93DF93EC018A819B8177
:1009E00097FD07C061E00E94FD0C60E08A810E94D3
:1009F000390D8C819D8197FD08C061E0FED760E0D4
:100A000070E08C81DF91CF915BC7DF91CF9108952A
:100A1000FC011182108222E030E0338322830895AA
:100A2000FC01718360830895FC01808191810895A8
:100A300070E0FC017383628308951092FF0181E0EE
:100A40008093FD011092FC0161E081E10E94390D6B
:100A500061E080E10E94390DE9EBF0E080818E7F5A
:100A6000808380818D7F808388E48093B80085E4D3
:100A70008093BC0008950F93413208F04AC09091D2
:100A8000FF019111FCCF32E03093FF010093FD0193
:100A90003FEF309392011092D7014093D601562F29
:100AA000A8EDB1E0FB013E2F351B341718F431914E
:100AB0003D93F9CF1092FE013091FE01880F832BF8
:100AC0008093FE018091FC01813061F41092FC0161
:100AD0008091FE018093BB008091BC0083FDF8CF24
:100AE00085EC01C085EE8093BC00222321F080912B
:100AF000FF018230D1F3809192018F3F79F0809194
:100B00009201803241F080919201803331F094E083
:100B100005C091E003C092E001C093E0892F0F91DE
:100B20000895613298F42091FF01243089F4609394
:100B3000B401282FA6EBB1E0FC018E2F821B861793
:100B400018F481918D93F9CF80E0089581E00895A4
:100B500082E0089585ED8093BC008091BC0084FD07
:100B6000FCCF1092FF01089585EC8093BC00109299
:100B7000FF0108951F920F920FB60F9211240BB62A
:100B80000F922F933F934F935F936F937F938F9326
:100B90009F93AF93BF93EF93FF938091B900887FAA
:100BA000803609F49DC070F5883209F45CC090F479
:100BB000803109F455C038F4882309F4F3C0883033
:100BC00009F44EC0F2C0883109F44DC0803209F4F6
:100BD0005EC0EBC0803409F469C050F4803309F47E
:100BE00056C0883309F0E1C080939201BDDFDDC0BB
:100BF000803509F44FC0883509F45DC0883409F0A8
:100C0000D4C0D2C0883909F4C3C0A8F4883709F425
:100C100067C038F4883609F463C0803709F460C0CF
:100C2000C4C0883809F4B4C0803909F45FC0803882
:100C300009F0BBC05BC0803B09F482C038F4803A45
:100C400009F466C0883A09F47BC0AFC0803C09F45F
:100C5000A3C0883C09F4A0C0883B09F486C0A5C0A5
:100C60008091FE0110C09091D7018091D601981714
:100C700070F5E091D70181E08E0F8093D701F0E00D
:100C8000E852FE4F80818093BB0085EC82C0809348
:100C900092018AC0E091D70181E08E0F8093D70145
:100CA0008091BB00F0E0E852FE4F80839091D70125
:100CB0008091D6016AC0E091D70181E08E0F8093C8
:100CC000D7018091BB00F0E0E852FE4F8083809115
:100CD000FD01811169C081E08093FC0184EA5DC05F
:100CE00083E08093FF0110929301CFCF8091930115
:100CF000803208F04DC0E091930181E08E0F809327
:100D000093018091BB00F0E0EC56FE4F8083BDCF95
:100D10002BDF80919301803230F4E0919301F0E079
:100D2000EC56FE4F10826091930170E0E091F80163
:100D3000F091F90184E991E009951092930135C091
:100D400084E08093FF011092B5011092B401E0910C
:100D5000FA01F091FB0109958091B401811105C060
:100D600081E08093B4011092B601E091B50181E079
:100D70008E0F8093B501F0E0EA54FE4F808180939E
:100D8000BB009091B5018091B401981708F47DCF14
:100D900085E88093BC0009C085EC8093BC0010926C
:100DA000FF0103C010929201D5DEFF91EF91BF9138
:100DB000AF919F918F917F916F915F914F913F91F3
:100DC0002F910F900BBE0F900FBE0F901F90189594
:100DD0008091300290E020913102821B91090895A8
:100DE0009091310280913002981750F4E92FF0E091
:100DF000EE5CFD4F208130E09F5F9093310202C096
:100E00002FEF3FEFC9010895E09131028091300248
:100E1000E81730F4F0E0EE5CFD4F808190E008953B
:100E20008FEF9FEF08950895CF92DF92EF92FF9298
:100E30000F931F93CF93DF937C01CB018A01209105
:100E40000C02222389F0EB016B01C40ED51ECC15D8
:100E5000DD0561F06991D701ED91FC910190F08180
:100E6000E02DC7010995F3CF642F5BDEC801DF9148
:100E7000CF911F910F91FF90EF90DF90CF90089549
:100E8000CF93DF931F92CDB7DEB7698320910C0219
:100E90002223D1F020910D02203240F021E030E0F9
:100EA000FC013383228380E090E014C080910E0225
:100EB000E82FF0E0E15FFD4F998190838F5F809391
:100EC0000E0280930D0204C061E0CE01019629DE7E
:100ED00081E090E00F90DF91CF910895FC011382A3
:100EE000128288EE93E0A0E0B0E084839583A6832D
:100EF000B78381E491E09183808308951092310259
:100F00001092300210920E0210920D0296CD81E0E6
:100F100080930C0260932F0210920E0210920D0229
:100F200008950F93062F21E040910D026FE072E0CB
:100F300080912F02A0DD10920E0210920D021092ED
:100F40000C020F91089561E0ECCF80E092E0C6CFF3
:100F50005058BB27AA270ED01CC10DD130F012D19A
:100F600020F031F49F3F11F41EF402C10EF4E0951D
:100F7000E7FBF8C0E92F1ED180F3BA1762077307A9
:100F80008407950718F071F49EF536C10EF4E095CC
:100F90000B2EBA2FA02D0B01B90190010C01CA0133
:100FA000A0011124FF27591B99F0593F50F4503EDE
:100FB00068F11A16F040A22F232F342F4427585FD0
:100FC000F3CF469537952795A795F0405395C9F7E8
:100FD0007EF41F16BA0B620B730B840BBAF09150A0
:100FE000A1F0FF0FBB1F661F771F881FC2F70EC03F
:100FF000BA0F621F731F841F48F487957795679512
:10100000B795F7959E3F08F0B3CF9395880F08F0FA
:101010009927EE0F9795879508950CD0BAC0B2D056
:1010200040F0A9D030F021F45F3F19F09BC051117E
:10103000E4C09EC0BFD098F39923C9F35523B1F300
:10104000951B550BBB27AA2762177307840738F037
:101050009F5F5F4F220F331F441FAA1FA9F333D096
:101060000E2E3AF0E0E830D091505040E695001C4A
:10107000CAF729D0FE2F27D0660F771F881FBB1F06
:10108000261737074807AB07B0E809F0BB0B802DE0
:10109000BF01FF2793585F4F2AF09E3F510568F02C
:1010A00061C0ABC05F3FECF3983EDCF3869577956B
:1010B0006795B795F7959F5FC9F7880F911D96952E
:1010C000879597F90895E1E0660F771F881FBB1F8A
:1010D000621773078407BA0720F0621B730B840B37
:1010E000BA0BEE1F88F7E0950895E89409C097FBC6
:1010F0003EF490958095709561957F4F8F4F9F4FEF
:101100009923A9F0F92F96E9BB279395F695879532
:1011100077956795B795F111F8CFFAF4BB0F11F4F5
:1011200060FF1BC06F5F7F4F8F4F9F4F16C088239C
:1011300011F096E911C0772321F09EE8872F762FD2
:1011400005C0662371F096E8862F70E060E02AF013
:101150009A95660F771F881FDAF7880F96958795FF
:1011600097F9089597F99F6780E870E060E0089527
:101170009FEF80EC089500240A94161617061806AF
:101180000906089500240A9412161306140605068B
:101190000895092E0394000C11F4882352F0BB0F1C
:1011A00040F4BF2B11F460FF04C06F5F7F4F8F4F7F
:1011B0009F4F089557FD9058440F551F59F05F3FBA
:1011C00071F04795880F97FB991F61F09F3F79F069
:1011D00087950895121613061406551FF2CF4695EB
:1011E000F1DF08C0161617061806991FF1CF86956D
:1011F0007105610508940895E894BB276627772751
:10120000CB0197F908950BD0C4CFB5DF28F0BADF32
:1012100018F0952309F0A6CFABCF1124EECFCADF8B
:10122000A0F3959FD1F3950F50E0551F629FF001F9
:10123000729FBB27F00DB11D639FAA27F00DB11D52
:10124000AA1F649F6627B00DA11D661F829F2227DB
:10125000B00DA11D621F739FB00DA11D621F839F62
:10126000A00D611D221F749F3327A00D611D231F38
:10127000849F600D211D822F762F6A2F11249F5786
:1012800050408AF0E1F088234AF0EE0FFF1FBB1FA9
:10129000661F771F881F91505040A9F79E3F510548
:1012A00070F060CFAACF5F3FECF3983EDCF38695F9
:1012B00077956795B795F795E7959F5FC1F7FE2BF3
:1012C000880F911D9695879597F90895FC01918D4A
:1012D000228D892F90E0805C9F4F821B91098F7334
:1012E00099270895FC01918D828D981731F0828D98
:1012F000E80FF11D858D90E008958FEF9FEF089521
:10130000FC01918D828D981761F0828DDF01A80F0D
:10131000B11D5D968C91928D9F5F9F73928F90E02F
:1013200008958FEF9FEF089589E99AE0892B39F0AE
:1013300080E090E0892B19F0FCD081110DC080E095
:1013400090E0892B71F080E090E0892B51F00E94B1
:101350000000811104C008950E940000F0CF0C9499
:1013600000000895FC01848DDF01A80FB11DA35A70
:10137000BF4F2C91848D90E001968F739927848FB5
:10138000A689B7892C93A089B1898C9180648C93AC
:10139000938D848D981306C00288F389E02D808197
:1013A0008F7D80830895EF92FF920F931F93CF93C9
:1013B000DF93EC0181E0888F9B8D8C8D981305C0A5
:1013C000E889F989808185FD23C0F62E0B8D10E018
:1013D0000F5F1F4F0F731127E02E8C8DE8120BC08B
:1013E0000FB607FCFACFE889F989808185FFF5CF30
:1013F000CE01B8DFF2CF8B8DFE01E80FF11DE35A6D
:10140000FF4FF0820B8FEA89FB898081806207C0E1
:10141000EE89FF896083E889F9898081806480830F
:1014200081E090E0DF91CF911F910F91FF90EF90BD
:101430000895CF93DF93EC01888D8823C1F0EA896A
:10144000FB89808185FD05C0A889B9898C9186FDBD
:101450000EC00FB607FCF5CF808185FFF2CFA889BB
:10146000B9898C9185FFEDCFCE017CDFE8CFDF918C
:10147000CF9108951F920F920FB60F9211240BB6C1
:101480000F922F938F939F93EF93FF93E0916202BC
:10149000F09163028081E0916802F091690282FD1F
:1014A00012C0908180916B028F5F8F7320916C02CC
:1014B000821751F0E0916B02F0E0EE5AFD4F958FEC
:1014C00080936B0201C08081FF91EF919F918F917A
:1014D0002F910F900BBE0F900FBE0F901F9018957D
:1014E0001F920F920FB60F9211240BB60F922F93EB
:1014F0003F934F935F936F937F938F939F93AF939C
:10150000BF93EF93FF9382E592E02CDFFF91EF9181
:10151000BF91AF919F918F917F916F915F914F910B
:101520003F912F910F900BBE0F900FBE0F901F9009
:10153000189582E592E0CADE21E0892B09F420E0CB
:10154000822F0895E2E5F2E01382128288EE93E0A2
:10155000A0E0B0E084839583A683B78381E591E022
:101560009183808385EC90E09587848784EC90E07C
:101570009787868780EC90E0918B808B81EC90E060
:10158000938B828B82EC90E0958B848B86EC90E041
:10159000978B868B118E128E138E148E089508955C
:1015A00024D1FDDF0E946B01C4E9D9E00E94E8016B
:1015B0002097E1F3B9DEFACF1AC3B1C3CF92DF921D
:1015C000EF92FF920F931F93CF93DF936C017A01F9
:1015D0008B01C0E0D0E0CE15DF0581F0D8016D9120
:1015E0008D01D601ED91FC910190F081E02DC601B5
:1015F0000995892B11F02196EECF7E01C701DF916D
:10160000CF911F910F91FF90EF90DF90CF900895B1
:101610006115710579F0FB0101900020E9F7319720
:10162000AF01461B570BDC01ED91FC910280F38169
:10163000E02D099480E090E00895EF92FF920F93DF
:101640001F93CF93DF938C017B01C0E0D0E0F701C3
:10165000EC0FFD1F6491662361F0D801ED91FC91C0
:101660000190F081E02DC8010995892B11F0219698
:10167000EECFCE01DF91CF911F910F91FF90EF90B0
:101680000895C6CF1F920F920FB60F9211242F9379
:101690003F938F939F93AF93BF938091F00290916C
:1016A000F102A091F202B091F3023091EF0223E037
:1016B000230F2D3720F40196A11DB11D05C026E88A
:1016C000230F0296A11DB11D2093EF028093F0021B
:1016D0009093F102A093F202B093F3028091F4028E
:1016E0009091F502A091F602B091F7020196A11D2A
:1016F000B11D8093F4029093F502A093F602B0938B
:10170000F702BF91AF919F918F913F912F910F90D1
:101710000FBE0F901F9018953FB7F8948091F40278
:101720009091F502A091F602B091F70226B5A89B20
:1017300005C02F3F19F00196A11DB11D3FBFBA2F63
:10174000A92F982F8827820F911DA11DB11DBC01C3
:10175000CD0142E0660F771F881F991F4A95D1F788
:1017600008958F929F92AF92BF92CF92DF92EF92A5
:10177000FF926B017C01D0DF4B015C01C114D104ED
:10178000E104F104F1F002D2C7DFDC01CB018819DA
:101790009909AA09BB09883E9340A105B10570F3D8
:1017A00021E0C21AD108E108F10888EE880E83E032
:1017B000981EA11CB11CC114D104E104F10421F74D
:1017C000DDCFFF90EF90DF90CF90BF90AF909F90D4
:1017D0008F9008958230910538F0880F991F880FF7
:1017E000991F05970197F1F70895789484B5826061
:1017F00084BD84B5816084BD85B5826085BD85B5B5
:10180000816085BDEEE6F0E0808181608083E1E863
:10181000F0E010828081826080838081816080839B
:10182000E0E8F0E0808181608083E1EBF0E080819E
:1018300084608083E0EBF0E0808181608083E1E977
:10184000F0E0808182608083808181608083E0E934
:10185000F0E0808181608083EAE7F0E0808184604D
:1018600080838081826080838081816080838081A9
:10187000806880831092C1000895883038F08831E4
:1018800020F09FE1981B892F01C08FEF2091130159
:1018900090E4299F900111248770822B80937C0013
:1018A00080917A00806480937A0080917A0086FD2E
:1018B000FCCF809178002091790090E0922B0895E0
:1018C0001F93CF93DF93182FEB0161E096D0209701
:1018D00011F460E004C0CF3FD10531F461E0812F05
:1018E000DF91CF911F91C5C0E12FF0E0E152FF4F92
:1018F000E4918E2F90E0FC013197EA30F10508F079
:1019000045C0EA5BFF4F6AC184B5806884BDC7BD2E
:1019100042C084B5806284BDC8BD3DC08091800056
:10192000806880938000D0938900C093880033C082
:1019300080918000806280938000D0938B00C09360
:101940008A0029C08091B00080688093B000C09365
:10195000B30021C08091B00080628093B000C0933A
:10196000B40019C080919000806880939000D0935B
:101970009900C09398000FC080919000806280937E
:101980009000D0939B00C0939A0005C0C038D10549
:101990000CF0A4CF9ECFDF91CF911F91089590E0DE
:1019A000FC013197EA30F10538F5E05BFF4F16C1D5
:1019B000809180008F7703C0809180008F7D80931D
:1019C0008000089584B58F7702C084B58F7D84BD73
:1019D00008958091B0008F7703C08091B0008F7D13
:1019E0008093B0000895809190008F7703C080911C
:1019F00090008F7D809390000895CF93DF9390E0C7
:101A0000FC01E150FF4F2491FC01E15EFE4F849107
:101A1000882361F190E0880F991FFC01ED5AFE4F79
:101A2000C591D491FC01E75BFE4FA591B491611182
:101A300009C09FB7F8948881209582238883EC9110
:101A40002E230BC0623061F49FB7F8948881322F47
:101A5000309583238883EC912E2B2C939FBF06C057
:101A60008FB7F894E8812E2B28838FBFDF91CF9119
:101A700008951F93CF93DF93282F30E0F901E152AF
:101A8000FF4F8491F901E150FF4FD491F901E15EDC
:101A9000FE4FC491CC23B9F0162F811180DFEC2FBB
:101AA000F0E0EE0FFF1FE75BFE4FA591B4919FB7EB
:101AB000F894111104C08C91D095D82302C0EC91F8
:101AC000DE2BDC939FBFDF91CF911F910895CF93C1
:101AD000DF93282F30E0F901E152FF4F8491F901A3
:101AE000E150FF4FD491F901E15EFE4FC491CC2348
:101AF00089F0811154DFEC2FF0E0EE0FFF1FE15C65
:101B0000FE4FA591B491EC91ED2381E090E021F49A
:101B100080E002C080E090E0DF91CF910895CF9205
:101B2000DF92EF92FF920F931F93CF93DF93F82EE4
:101B3000D62FE42E07E010E0C0E087E0C82ED12CBD
:101B400061E08D2F96DF8F2DE11009C0C0DF960177
:101B5000201B310B01C0880F2A95EAF706C0B7DFBA
:101B6000002E01C0880F0A94EAF7C82B60E08D2F81
:101B700080DF0150110920F78C2FDF91CF911F9149
:101B80000F91FF90EF90DF90CF9008950895AA1BDA
:101B9000BB1B51E107C0AA1FBB1FA617B70710F058
:101BA000A61BB70B881F991F5A95A9F7809590958A
:101BB000BC01CD01089597FB072E16F4009406D0C2
:101BC00077FD08D0E4DF07FC05D03EF490958195C1
:101BD0009F4F0895709561957F4F0895EE0FFF1FF9
:101BE0000024001C0BBE0790F691E02D09940F9382
:101BF0001F93CF93DF938230910510F482E090E041
:101C0000E091FA02F091FB0220E030E0A0E0B0E0C9
:101C1000309719F14081518102811381481759078A
:101C2000C8F08417950769F4109731F012960C9359
:101C3000129713961C9327C00093FA021093FB028D
:101C400022C02115310519F04217530718F49A01E3
:101C5000BD01EF01DF01F801DBCF21153105F9F0FE
:101C6000281B390B2430310580F48A819B81611552
:101C7000710521F0FB019383828304C09093FB02E2
:101C80008093FA02FE01329644C0FE01E20FF31F78
:101C90008193919322503109398328833AC020914E
:101CA000F8023091F902232B41F420910201309186
:101CB00003013093F9022093F80220910001309142
:101CC00001012115310541F42DB73EB740910401C2
:101CD00050910501241B350BE091F802F091F902B7
:101CE000E217F307A0F42E1B3F0B2817390778F0F3
:101CF000AC014E5F5F4F2417350748F04E0F5F1F52
:101D00005093F9024093F8028193919302C0E0E06E
:101D1000F0E0CF01DF91CF911F910F910895CF9304
:101D2000DF93009709F481C0FC013297138212827D
:101D3000A091FA02B091FB02109781F420813181C9
:101D4000820F931F2091F8023091F902281739076A
:101D500051F5F093F902E093F80267C0ED0120E03D
:101D600030E0CE17DF0740F44A815B819E014115C8
:101D70005105F1F0EA01F5CFD383C283408151814F
:101D8000840F951FC817D90759F488819981840F4A
:101D9000951F0296918380838A819B81938382839E
:101DA0002115310529F4F093FB02E093FA023DC0BE
:101DB000E901FB83EA8349915991C40FD51FEC17C0
:101DC000FD0761F480819181840F951F0296E901DE
:101DD00099838883828193819B838A83E0E0F0E00A
:101DE00012968D919C911397009719F0FD01DC01DB
:101DF000F7CF8D919C9111979D012E5F3F4F820FE0
:101E0000931F2091F8023091F9022817390769F4DD
:101E1000309729F41092FB021092FA0202C013824A
:101E20001282B093F902A093F802DF91CF91089546
:101E300010E0C2EBD0E003C0FE01D0DE2196C33B30
:081E4000D107D1F7F894FFCFA0
:101E48000000FC0220003200320004000F000900EC
:101E580001000101000040001400540055472042D1
:101E6800494F4D45444943414C20454E0000000030
:101E780000FA01FB01000000005803DE0A00000020
:101E88000040071407E806F00604071307000000DF
:0E1E980000D309DE0A660980097209190A00E2
:00000001FF
