:10000000FFC0000027C1000025C1000023C100007F
:1000100021C100001FC100001DC100001BC1000064
:1000200019C1000017C1000015C1000013C1000074
:1000300011C100000FC100000DC100000BC1000084
:1000400009C1000007C100000C94A11403C1000005
:100050000C9499130C94CF13FDC00000FBC000005A
:10006000F9C00000F7C000000C945B0DF3C0000065
:10007000F1C00000EFC00000EDC00000EBC00000C8
:10008000E9C00000E7C00000E5C0000052026B02BA
:1000900084029D02B602CF02E80201031A03330371
:1000A0004C03650308000000BE922449123EABAA2F
:1000B000AA2ABECDCCCC4C3E00000080BEABAAAA82
:1000C000AA3E00000000BF000000803F00000000CA
:1000D00000084178D3BB4387D1133D190E3CC3BD03
:1000E0004282AD2B3E68EC8276BED98FE1A93E4CB0
:1000F00080EFFFBE01C4FF7F3F00000000000763E8
:100100004236B79BD8A71A39685618AEBAAB558C89
:100110001D3CB7CC5763BD6DEDFD753EF6177231D2
:10012000BF000000803FEF15F415F91503163116D6
:1001300031160D1615161D1627164D165016431698
:10014000471667166716541658165E166216496EDD
:100150007465727275707473206E6F74207375702D
:10016000706F72746564206F6E207468697320709C
:100170006C6174666F726D0A000000000102000974
:100180000A0000000004030807000000000000004F
:1001900000000000000000000001020408102040E0
:1001A0008001020408102040800102040810204051
:1001B00080804020100804020102020202020202B2
:1001C00002040404040404040403030303030303F8
:1001D00003010101010101010100002000230026AB
:1001E00000290000002200250028002B000000212B
:1001F00000240027002A00003907460F0114470792
:1002000011241FBECFEFD0E4DEBFCDBF12E0A0E0CF
:10021000B1E0E6E3F8E300E00BBF02C007900D9207
:10022000AC33B107D9F724E0ACE3B2E001C01D92D2
:10023000A830B207E1F710E0CFEFD0E004C021977B
:10024000FE010E94F117CC3FD107C9F70E942F147D
:100250000C940F1CD5CE80E008950E94A815BC0117
:10026000990F880B990B0E94491023E23BED49EF4F
:100270005EE30C941E1108950F931F9300E010E0AD
:100280002DE832E04EE852E062E070E086EA91E06C
:100290000E94970A892B41F068EE73E080E090E0BD
:1002A0000E941C1580E007C06CED75E080E090E0D6
:1002B0000E941C1581E01F910F910895AF92BF928B
:1002C000CF92DF92EF92FF920F931F93682F70E00F
:1002D00080E090E01F921F921F922FEF2F93A12C8E
:1002E000B12C650114E6E12EF12C00E010E020E0D5
:1002F00030E0A9010E9431170F900F900F900F90DE
:1003000083E01F910F91FF90EF90DF90CF90BF900F
:10031000AF900C94CB15CF92DF92EF92FF92BC017D
:100320008FEF93E00E94A017072E000C880B990B0B
:100330000E94491020E030E040E85FE30E94490F4E
:100340006B017C016091140170911501072E000C66
:10035000880B990B0E944910A70196010E941E115B
:10036000FF90EF90DF90CF900895CF92DF92EF92C1
:10037000FF920F931F93CF93DF930E94A8158C01D8
:10038000C12CD12C7601C0E0D0E0609106017091C3
:100390000701C617D70794F4C801BDDF9B01AC0164
:1003A000C701B6010E944A0F6B017C0180910801D0
:1003B000909109010E9455152196E7CF072E000C58
:1003C000880B990B0E9449109B01AC01C701B60133
:1003D0000E94AE0FDF91CF911F910F91FF90EF9090
:1003E000DF90CF900895AF92BF92CF92DF92EF92BD
:1003F000FF920F931F93CF93DF93CDB7DEB72C9768
:100400000FB6F894DEBF0FBECDBFA982BA82CB82F1
:10041000DC82ED82FE820F83188729873A874B871B
:100420005C870E94DE102D813E814F8158850E949D
:10043000490F29853A854B855C850E94AE0F29813D
:100440003A814B815C810E944A0F9B01AC0160E0C4
:1004500070E080E291E40E9481110E941610CB01AD
:100460002C960FB6F894DEBF0FBECDBFDF91CF91B3
:100470001F910F91FF90EF90DF90CF90BF90AF90C2
:100480000895AF92BF92CF92DF92EF92FF920F93B7
:100490001F934C30510508F038C1FA01EA5BFF4F59
:1004A0000C94F117A0909A01B0909B01C0909C0110
:1004B000D0909D01E0909E01F0909F010091A001DD
:1004C0001091A1012091A2013091A3014091A401BA
:1004D0005091A50112C1A0908E01B0908F01C090E3
:1004E0009001D0909101E0909201F09093010091E1
:1004F00094011091950120919601309197014091BE
:10050000980150919901F9C0A0908201B0908301A7
:10051000C0908401D0908501E0908601F090870121
:10052000009188011091890120918A0130918B01FD
:1005300040918C0150918D01E0C0A0907601B09067
:100540007701C0907801D0907901E0907A01F09025
:100550007B0100917C0110917D0120917E01309101
:100560007F014091800150918101C7C0A0906A0134
:10057000B0906B01C0906C01D0906D01E0906E0165
:10058000F0906F0100917001109171012091720142
:10059000309173014091740150917501AEC0A090EB
:1005A0005E01B0905F01C0906001D0906101E09069
:1005B0006201F09063010091640110916501209146
:1005C000660130916701409168015091690195C0C1
:1005D000A0905201B0905301C0905401D0905501A9
:1005E000E0905601F0905701009158011091590187
:1005F00020915A0130915B0140915C0150915D0165
:100600007CC0A0904601B0904701C0904801D090B6
:100610004901E0904A01F0904B0100914C0110918A
:100620004D0120914E0130914F0140915001509168
:10063000510163C0A0903A01B0903B01C0903C01D1
:10064000D0903D01E0903E01F0903F0100914001CB
:1006500010914101209142013091430140914401A8
:10066000509145014AC0A0902E01B0902F01C0903A
:100670003001D0903101E0903201F09033010091CF
:1006800034011091350120913601309137014091AC
:1006900038015091390131C0A0902201B09023015E
:1006A000C0902401D0902501E0902601F090270110
:1006B000009128011091290120912A0130912B01EC
:1006C00040912C0150912D0118C0A0901601B090BE
:1006D0001701C0901801D0901901E0901A01F09014
:1006E0001B0100911C0110911D0120911E013091F0
:1006F0001F01409120015091210175DEBC01990F2D
:10070000880B990B0E94491003C060E070E0CB0198
:100710001F910F91FF90EF90DF90CF90BF90AF901F
:100720000895CF92DF92EF92FF920F931F93CF9392
:10073000DF93D82FC62F00E010E0C12CD12C76011A
:1007400060910C0170910D0106171707CCF48D2FE5
:100750000E94A815E0DD9B01AC01C701B6010E9413
:100760004A0F6B017C0160910A0170910B01072E09
:10077000000C880B990B0E941C150F5F1F4FE0CFD8
:10078000072E000C880B990B0E9449109B01AC01AD
:10079000C701B6010E94AE0F6B017C01C13069F048
:1007A00038F0C230E1F460910E0170910F0109C080
:1007B000609112017091130104C060911001709159
:1007C0001101072E000C880B990B0E9449109B0108
:1007D000AC01C701B6010E94AE0F6B017C01C701DD
:1007E000B601DF91CF911F910F91FF90EF90DF90B5
:1007F000CF900895CF92DF92EF92FF92CF93DF9345
:10080000EC01862FB2DD2091850230918602409165
:100810008702509188020E94AE0F6B017C0146E076
:1008200050E02FDE688379838A839B8347E050E022
:10083000C701B60126DE6C837D838E839F8348E0EB
:1008400050E0C701B6011DDE688779878A879B87DC
:10085000CE01DF91CF91FF90EF90DF90CF90089580
:10086000CF92DF92EF92FF92CF93DF93EC01862F2E
:100870007CDD2091890230918A0240918B02509157
:100880008C020E94AE0F6B017C0149E050E0F9DD63
:10089000688379838A839B834AE050E0C701B6016D
:1008A000F0DD6C837D838E839F834BE050E0C70136
:1008B000B601E7DD688779878A879B87CE01DF915C
:1008C000CF91FF90EF90DF90CF900895CF93DF937B
:1008D000CDB7DEB72C970FB6F894DEBF0FBECDBFF5
:1008E00060E0CE01019686DF69857A858B859C85DF
:1008F0002C960FB6F894DEBF0FBECDBFDF91CF911F
:100900000895CF93DF93CDB7DEB72C970FB6F89449
:10091000DEBF0FBECDBF60E0CE010196A1DF6981D1
:100920007A818B819C812C960FB6F894DEBF0FBE26
:10093000CDBFDF91CF910895CF93DF9320E843E0BF
:1009400062E08FE892E051D360E080E0EADE6093FD
:10095000810270938202809383029093840240E02C
:1009600050E06FE170E084E792E0D4D440E050E0E2
:100970006DE070E084E792E0E5D440E050E065E0AF
:1009800070E084E792E0F6D46EE573E084E792E0ED
:1009900023D562E084E792E021D540E050E066E2B2
:1009A00072E084E792E01CD584E792E06CD4811178
:1009B0001CC0C4E1D0E060E08DE00E94A41664E6B3
:1009C00070E080E090E00E941C1561E08DE00E94E4
:1009D000A41664E670E080E090E00E941C15219768
:1009E00051F761E08DE00E94A41688E692E013D4EE
:1009F00088E692E035D388E692E070D340E060E08C
:100A000088E692E077D362EB71E088E692E00E949C
:100A1000A01468EB7BE080E090E00E941C1588E663
:100A200092E05CD340E060E088E692E0DF91CF9115
:100A300061C3FF920F931F93CF93DF930E94EB1438
:100A40002091660230916702DC01CB01821B930B7F
:100A5000A109B109893E9340A105B10548F08091F3
:100A600053022CDC0E94EB147093670260936602C1
:100A70000E94EB142091640230916502DC01CB01ED
:100A8000821B930BA109B109893E9340A105B105D1
:100A9000F8F080E0E2DB20E030E04CE052E40E943D
:100AA000D510181614F480E00CC0809152028352C5
:100AB00094E6899F802D112463E20E948017809321
:100AC0005202FCDB0E94EB14709365026093640297
:100AD0000E94EB142091620230916302DC01CB0191
:100AE000821B930BA109B109893E9340A105B10571
:100AF00078F0C2DB882331F080918E02853210F4C9
:100B0000109253020E94EB1470936302609362028E
:100B10000E94EB142091600230916102DC01CB0154
:100B2000821B930BA109B109893E9340A105B10530
:100B300030F00E94EB1470936102609360020E9497
:100B4000EB1420915E0230915F02DC01CB01821B2D
:100B5000930BA109B109893E9340A105B105A8F005
:100B600060E070E084E792E01DD480935102853606
:100B700020F081E080933C0202C010923C020E946F
:100B8000EB1470935F0260935E020E94EB1420915D
:100B90005C0230915D02DC01CB01821B930BA10949
:100BA000B109893E9340A105B10568F08FE892E054
:100BB00031D20E941B10609350020E94EB1470937C
:100BC0005D0260935C020E94EB1420915A02309106
:100BD0005B02DC01CB01821B930BA109B109893EA9
:100BE0009340A105B10598F071DE0E941B1060933F
:100BF0004F02663120F081E080933C0202C01092E7
:100C00003C020E94EB1470935B0260935A020E94B4
:100C1000EB142091580230915902DC01CB01821B68
:100C2000930BA109B109893E9340A105B10598F044
:100C300068DE0E941B1060934E02663120F081E056
:100C400080933C0202C010923C020E94EB1470930D
:100C50005902609358020E94EB1420915402309183
:100C60005502DC01CB01821B930BA109B109893E1E
:100C70009340A105B10520F080913C028111ECC0A8
:100C80000E94EB142091560230915702DC01CB01F7
:100C9000821B930BA109B109893E9340A105B105BF
:100CA00008F4E1C080914D02833008F080E0809329
:100CB0004D0288E692E012D280914D02813009F413
:100CC00088C008F440C0823009F0BFC0CDE3D2E054
:100CD00080E1F82EFE012F2D11922A95E9F701EE01
:100CE00011E01F930F93DF93CF930E94341940E0DC
:100CF00060E088E692E0FED1BE0188E692E00E94C4
:100D0000A014FE011192FA94E9F71F930F93DF9359
:100D1000CF930E94341941E060E088E692E0EAD186
:100D2000BE0188E692E00E94A01480914D028F5F80
:100D300080934D028DB79EB708960FB6F8949EBF6C
:100D40000FBE8DBF82C0CDE3D2E010E1FE01212FA6
:100D500011922A95E9F7809151021F928F9383ECAB
:100D600091E09F938F93DF93CF930E94341940E0DB
:100D700060E088E692E0BED1BE0188E692E00E9483
:100D8000A014FE0111921A95E9F7809150021F926A
:100D90008F9384ED91E09F938F93DF93CF930E9485
:100DA000341941E060E088E692E0A4D1BE0188E613
:100DB00092E00E94A01480914D028F5F80934D02BB
:100DC0008DB79EB70C960FB6F8949EBF0FBE8DBF21
:100DD0003CC0CDE3D2E090E1F92EFE012F2D11921F
:100DE0002A95E9F701EE11E01F930F93DF93CF935C
:100DF0000E94341940E060E088E692E07BD1BE01B9
:100E000088E692E00E94A014FE011192FA94E9F79C
:100E10001F930F93DF93CF930E94341941E060E05A
:100E200088E692E067D1BE0188E692E00E94A014B5
:100E300080914D028F5F80934D028DB79EB70896CB
:100E40000FB6F8949EBF0FBE8DBF0E94EB14709337
:100E500057026093560207C00E94EB14709355022C
:100E6000609354020DCFDF91CF911F910F91FF90AE
:100E700008958FE892E011D061E070E084E792E09D
:100E8000CBD122E040E167E288E692E0C9C08FE87A
:100E900092E000C008950C943C14FC018FEF91E0A7
:100EA00091838083158216821782108680E090E0FD
:100EB000A0E8BFE381879287A387B4870895FC01E8
:100EC00083810E94D21621E0892B09F020E0822F35
:100ED0000895CF92DF92EF92FF92CF93DF93EC01D0
:100EE0006A017B01CE01EBDF811105C0C701B601AC
:100EF0000E941C15F7CFDF91CF91FF90EF90DF900C
:100F0000CF900895CF92DF92EF92FF920F931F93AD
:100F1000CF93DF93EC0140E050E0BA01DADFEFB6A7
:100F2000F89441E06A818B810E94FA16082F41E013
:100F30006A818B810E94FA16182F41E06A818B81A9
:100F40000E94FA16F82EC12CD12C8C8190E0C81684
:100F5000D90660F461E08A810E94A41660E08A816B
:100F60000E94A4162FEFC21AD20AEFCFEFBE812F34
:100F700090E0A0E0B0E0BA2FA92F982F8827A02BEF
:100F8000AC01BD014F29802F880F880B90E0A0E0B5
:100F9000B0E0B82FAA27992788278A019B01082B40
:100FA000192B2A2B3B2BC901B801DF91CF911F913F
:100FB0000F91FF90EF90DF90CF900895CF93DF9344
:100FC000EC01603441F0603821F0603231F482E0AD
:100FD00003C081E001C083E08C8360E08A810E94CD
:100FE000A416CE01DF91CF918DCF1F93CF93DF93C6
:100FF000EC01842F122F4A836B8361E00E946816F4
:1010000060E08B810E946816612FCE01DF91CF9145
:101010001F91D4CFFC0161857285838594850895E5
:10102000FC011382128287E092E0918380836483C3
:1010300041872287138608951F93CF93DF93EC0196
:10104000162F6C818CE093E003D76B85612B8CE0CD
:1010500093E0B7D68CE093E0DF91CF911F9114C756
:1010600028E0FC01238760E0E7CF0F931F93CF9325
:101070008C01C62F6460E0DF81E090E00E9455158E
:101080006C2F6B7FC801D8DF82E390E0CF911F9176
:101090000F910C9455151F93CF93DF93EC01162FEE
:1010A000CBDF612FCE01DF91CF911F91DECF0F9368
:1010B0001F93CF93DF938C01C62FD42F607F642BB7
:1010C000EADF80E1C89FB00111246D2BC801DF91D8
:1010D000CF911F910F91DFCF40E0E9CF61E0FCDFBE
:1010E00080ED97E00C94551562E0F6DF80ED97E017
:1010F0000C945515CF93DF93CDB7DEB728970FB675
:10110000F894DEBF0FBECDBF9C0188E0EAEAF1E0B3
:10111000DE01119601900D928A95E1F7F901808523
:10112000841710F44FEF480FFE013196E40FF11DC4
:10113000E40FF11D9081690F6068C90128960FB610
:10114000F894DEBF0FBECDBFDF91CF91C5CFFC01BC
:101150006681262F246026836C60BECF41E0A7DF26
:1011600081E090E00895CF93DF93EC01423018F0D6
:101170008D8188608D834887222329F0413019F4BE
:101180008D8184608D8362E370E080E090E00E9456
:101190001C156B85CE0150DF68EE73E080E090E0B7
:1011A0000E941C1560E3CE0176DF84E991E10E9484
:1011B000551560E3CE016FDF84E991E10E9455157A
:1011C00060E3CE0168DF86E990E00E94551560E299
:1011D000CE0161DF6D816062CE017EDF84E08E83AF
:1011E000CE01B5DFCE017ADF82E08F8366E0CE01EB
:1011F00073DFCE01DF91CF9177CFCF93DF93EC01F7
:101200008CE093E01CD61D8220E04A856985CE01E2
:10121000DF91CF91A8CFF1CFAF92BF92CF92DF9263
:10122000EF92FF920F931F93CF93DF93EC018B010B
:10123000099668D1D0939D02C0939C0209835801FE
:10124000BB242CE3029FC00111240E943B146C01BB
:101250008C01E12CF12CEA14FB0441F0C80107D108
:10126000045C1F4F8FEFE81AF80AF5CFCA82DB82C1
:10127000DF91CF911F910F91FF90EF90DF90CF9072
:10128000BF90AF900895EF92FF920F931F93CF936B
:10129000DF93EC0100E010E0E12CF12C898190E07B
:1012A000E816F9065CF48A819B81800F911F0BD1AF
:1012B0008FEFE81AF80A045C1F4FF0CF0E94F71472
:1012C000DC01CB018053984FAF4FBF4F8C839D8380
:1012D000AE83BF83188618828091A801811102C055
:1012E00011E010C00E942B01182F8111F9CFCE01FF
:1012F000099614D1009721F06EE471E00E947C14ED
:1013000081E08883812FDF91CF911F910F91FF9012
:10131000EF900895FC0157FD14C0218130E0421781
:1013200053070CF49A014217530759F42CE3249FF6
:10133000C001259F900D112422813381820F931FBC
:10134000AAC00895FC0157FD14C0218130E0421766
:1013500053070CF49A014217530759F42CE3249FC6
:10136000C001259F900D112422813381820F931F8C
:1013700096C00895FC0157FD14C0218130E042174A
:1013800053070CF49A014217530759F42CE3249F96
:10139000C001259F900D112422813381820F931F5C
:1013A00082C00895FC0177FD14C0218130E06217EE
:1013B00073070CF49B016217730759F42CE3269F03
:1013C000C001279F900D112422813381820F931F2A
:1013D00076C08FEF9FEF089509969CC00996A2C032
:1013E000FC0157FD14C0218130E0421753070CF473
:1013F0009A014217530759F42CE3249FC001259FFB
:10140000900D112422813381820F931F50C00895C3
:10141000FC01DC015C96C0961D921D92A817B907CD
:10142000D9F71586178216828EEE92E0938782870F
:10143000148610AA11AA12AA13AA148A158A168A47
:10144000178A80E092E095AB84AB97AB86AB86E2DF
:1014500092E0918B808B91AF80AF84E690E0938B8C
:10146000828B81E082AF13AE1786168608952FE136
:1014700030E0FC01318320832FEF3FEF3383228361
:101480003583248342E050E060E070E0408F518F6C
:10149000628F738FBDCFFC01718360830895FC015F
:1014A000738362830895FC01758364830895F894BF
:1014B000FC01718B608B71AF60AF78940895FC0173
:1014C000868197810895CF93DF93EC018A819B8178
:1014D00097FD07C061E00E94681660E08A810E9463
:1014E000A4168C819D8197FD0AC061E00E94681658
:1014F00060E070E08C81DF91CF910C94CB15DF918F
:10150000CF910895FC011182108222E030E03383F4
:1015100022830895FC01718360830895FC0180811A
:101520009181089570E0FC01738362830895CF92E6
:10153000DF92EF92FF920F931F93CF93DF93CDB77C
:10154000DEB728970FB6F894DEBF0FBECDBF6A0195
:1015500079011D821E821F82188619821A821B82BF
:101560001C82DC01ED91FC910280F381E02D9E0153
:101570002F5F3F4FAE014B5F5F4F09958C01892B69
:10158000A1F4C114D10439F06D817E818F819885D9
:101590004DD5F6016083E114F10439F069817A8157
:1015A0008B819C8143D5D7016C93C80128960FB6D7
:1015B000F894DEBF0FBECDBFDF91CF911F910F9189
:1015C000FF90EF90DF90CF90089547E050E080E0EB
:1015D000FB012191BF01042E01C0220F0A94EAF7FA
:1015E000820F41505109A0F708958F929F92AF92B8
:1015F000BF92CF92DF92EF92FF920F931F93CF9300
:10160000DF93EC018B015A017901E881F9810680B1
:10161000F781E02D0995C82EB801685F7F4FE881FA
:10162000F9810680F781E02DCE010995D82EB80109
:10163000605F7F4FE881F9810680F781E02DCE0160
:101640000995882EB801685E7F4FE881F981068090
:10165000F781E02DCE010995982EB801605E7F4F8D
:10166000E881F9810680F781E02DCE0109959C2D56
:101670009D0D980D990D89130FC0892D90E0982923
:10168000F501918380838D2D90E09C29F701918352
:10169000808380E090E002C089E690E0DF91CF9106
:1016A0001F910F91FF90EF90DF90CF90BF90AF9080
:1016B0009F908F9008958F929F92AF92BF92CF92FA
:1016C000DF92EF92FF920F931F93CF93DF93CDB7EB
:1016D000DEB7AC970FB6F894DEBF0FBECDBF4C019E
:1016E0006A017901CE0101965C0188E2D5011D9263
:1016F0008A95E9F7D401ED91FC910084F185E02D04
:10170000A501C4010995009709F04EC01CA61BA6AF
:101710001AA619A6D401ED91FC910284F385E02D5F
:101720009E01275D3F4FAE01455D5F4FB501C4018E
:1017300009950097C9F50115110539F088E2F50101
:10174000D80101900D928A95E1F7C114D10479F086
:101750008CA5682F782F770F770B072E000C880B3E
:10176000990B97D4F6016083718382839383E1148C
:10177000F10481F08AA5682F782F770F770B072E59
:10178000000C880B990B85D4D7016D937D938D93B5
:101790009C9313978BA59CA5892B41F489A59AA5A9
:1017A000892B21F42AE603C0282F02C020E090E014
:1017B000822FAC960FB6F894DEBF0FBECDBFDF917F
:1017C000CF911F910F91FF90EF90DF90CF90BF903E
:1017D000AF909F908F900895DF92EF92FF920F93BA
:1017E0001F93CF93DF93D62ECA016AE070E00E9468
:1017F000A0178B011816190614F40F5F1F4FC0E0D5
:10180000D0E0E22EF12CC017D10764F48AE090E01A
:101810000E9455158D2D0E94D2168E159F0529F414
:101820002196F1CF8FEF9FEF02C080E090E0DF9133
:10183000CF911F910F91FF90EF90DF900895AF929D
:10184000BF92CF92DF92EF92FF920F931F93CF93AD
:10185000DF938C01EB017A0188E2DA011D928A950F
:10186000E9F761E08C2F0E94681660E08C2F0E94DF
:10187000A41664E170E080E090E00E941C1561E035
:101880008C2F0E94A41660E08C2F0E9468168EE1B7
:1018900090E00E945515D801ED91FC910480F581EE
:1018A000E02D20E040E550E0BE01C8010995892BFC
:1018B000A9F5D801ED91FC910480F581E02D21E09E
:1018C00040E550E0BE01C8010995892B51F557014B
:1018D000B8E2AB0EB11CD801ED91FC910480F5810A
:1018E000E02D20E042E350E0BE01C8010995892BBC
:1018F000D9F4C12CD12C8C2F0E94D2160197B9F4A7
:101900008AE090E00E945515BFEFCB1ADB0AE8E0B1
:10191000CE16D10481F787E690E025C084E690E0FA
:1019200022C085E690E01FC086E690E01CC081E002
:10193000B4E0CB16D1040CF480E0F70181937F0171
:10194000AE16BF0641F6D801ED91FC910480F581F9
:10195000E02D20E042E350E0BE01C8010995009768
:1019600011F088E690E0DF91CF911F910F91FF90E9
:10197000EF90DF90CF90BF90AF90089510920B033F
:1019800081E0809309031092080361E081E10E94E5
:10199000A41661E080E10E94A416E9EBF0E08081EA
:1019A0008E7F808380818D7F808388E48093B800E0
:1019B00085E48093BC0008950F93413208F04AC03B
:1019C00090910B039111FCCF32E030930B03009305
:1019D00009033FEF30939E021092E3024093E2022C
:1019E000562FA4EEB2E0FB013E2F351B341718F43E
:1019F00031913D93F9CF10920A0330910A03880F79
:101A0000832B80930A0380910803813061F4109244
:101A1000080380910A038093BB008091BC0083FD82
:101A2000F8CF85EC01C085EE8093BC00222321F025
:101A300080910B038230D1F380919E028F3F79F029
:101A400080919E02803241F080919E02803331F07D
:101A500094E005C091E003C092E001C093E0892FBB
:101A60000F910895613298F420910B03243089F48A
:101A70006093C002282FA2ECB2E0FC018E2F821BE3
:101A8000861718F481918D93F9CF80E0089581E055
:101A9000089582E0089585ED8093BC008091BC009C
:101AA00084FDFCCF10920B03089585EC8093BC005D
:101AB00010920B0308951F920F920FB60F921124EC
:101AC0000BB60F922F933F934F935F936F937F9338
:101AD0008F939F93AF93BF93EF93FF938091B90040
:101AE000887F803609F49DC070F5883209F45CC0A7
:101AF00090F4803109F455C038F4882309F4F3C018
:101B0000883009F44EC0F2C0883109F44DC08032EB
:101B100009F45EC0EBC0803409F469C050F480332E
:101B200009F456C0883309F0E1C080939E02BDDFFE
:101B3000DDC0803509F44FC0883509F45DC08834B4
:101B400009F0D4C0D2C0883909F4C3C0A8F48837DA
:101B500009F467C038F4883609F463C0803709F4A3
:101B600060C0C4C0883809F4B4C0803909F45FC0CB
:101B7000803809F0BBC05BC0803B09F482C038F4F8
:101B8000803A09F466C0883A09F47BC0AFC0803C53
:101B900009F4A3C0883C09F4A0C0883B09F486C0BE
:101BA000A5C080910A0310C09091E3028091E202E7
:101BB000981770F5E091E30281E08E0F8093E302C5
:101BC000F0E0EC51FD4F80818093BB0085EC82C03A
:101BD00080939E028AC0E091E30281E08E0F8093A1
:101BE000E3028091BB00F0E0EC51FD4F80839091C7
:101BF000E3028091E2026AC0E091E30281E08E0F8D
:101C00008093E3028091BB00F0E0EC51FD4F8083B4
:101C100080910903811169C081E08093080384EAFF
:101C20005DC083E080930B0310929F02CFCF809121
:101C30009F02803208F04DC0E0919F0281E08E0F3C
:101C400080939F028091BB00F0E0E056FD4F8083BF
:101C5000BDCF2BDF80919F02803230F4E0919F0254
:101C6000F0E0E056FD4F108260919F0270E0E0913D
:101C70000403F091050380EA92E0099510929F0217
:101C800035C084E080930B031092C1021092C00211
:101C9000E0910603F091070309958091C00281113C
:101CA00005C081E08093C0021092C202E091C1029F
:101CB00081E08E0F8093C102F0E0EE53FD4F8081F2
:101CC0008093BB009091C1028091C002981708F4E4
:101CD0007DCF85E88093BC0009C085EC8093BC0073
:101CE00010920B0303C010929E02D5DEFF91EF917C
:101CF000BF91AF919F918F917F916F915F914F9124
:101D00003F912F910F900BBE0F900FBE0F901F9021
:101D1000189580913C0390E020913D03821B91092E
:101D2000089590913D0380913C03981750F4E92F5A
:101D3000F0E0E25CFC4F208130E09F5F90933D0338
:101D400002C02FEF3FEFC9010895E0913D0380915C
:101D50003C03E81730F4F0E0E25CFC4F808190E057
:101D600008958FEF9FEF08950895CF92DF92EF923D
:101D7000FF920F931F93CF93DF937C01CB018A01D6
:101D800020911803222389F0EB016B01C40ED51EAC
:101D9000CC15DD0561F06991D701ED91FC910190C1
:101DA000F081E02DC7010995F3CF642F5BDEC801F8
:101DB000DF91CF911F910F91FF90EF90DF90CF9027
:101DC0000895CF93DF931F92CDB7DEB7698320913B
:101DD00018032223D1F020911903203240F021E092
:101DE00030E0FC013383228380E090E014C08091D6
:101DF0001A03E82FF0E0E55EFC4F998190838F5F36
:101E000080931A038093190304C061E0CE01019608
:101E100029DE81E090E00F90DF91CF910895FC01E1
:101E20001382128288EE93E0A0E0B0E08483958371
:101E3000A683B7838FE192E0918380830895109207
:101E40003D0310923C0310921A031092190396CD91
:101E500081E08093180360933B0310921A03109261
:101E6000190308950F93062F21E0409119036BE1A8
:101E700073E080913B03A0DD10921A0310921903C6
:101E8000109218030F91089561E0ECCF8CE093E07D
:101E9000C6CF5058BB27AA270ED04DC13ED130F037
:101EA00043D120F031F49F3F11F41EF433C10EF4FE
:101EB000E095E7FB29C1E92F4FD180F3BA176207FC
:101EC00073078407950718F071F49EF567C10EF447
:101ED000E0950B2EBA2FA02D0B01B90190010C013A
:101EE000CA01A0011124FF27591B99F0593F50F452
:101EF000503E68F11A16F040A22F232F342F4427AA
:101F0000585FF3CF469537952795A795F0405395A1
:101F1000C9F77EF41F16BA0B620B730B840BBAF071
:101F20009150A1F0FF0FBB1F661F771F881FC2F7DC
:101F30000EC0BA0F621F731F841F48F487957795F0
:101F40006795B795F7959E3F08F0B3CF9395880FA7
:101F500008F09927EE0F9795879508950CD0EBC060
:101F6000E3D040F0DAD030F021F45F3F19F0CCC07C
:101F7000511115C1CFC0F0D098F39923C9F355235F
:101F8000B1F3951B550BBB27AA276217730784076C
:101F900038F09F5F5F4F220F331F441FAA1FA9F322
:101FA00033D00E2E3AF0E0E830D091505040E69514
:101FB000001CCAF729D0FE2F27D0660F771F881F75
:101FC000BB1F261737074807AB07B0E809F0BB0B64
:101FD000802DBF01FF2793585F4F2AF09E3F510588
:101FE00068F092C0DCC05F3FECF3983EDCF386956E
:101FF00077956795B795F7959F5FC9F7880F911DFE
:102000009695879597F90895E1E0660F771F881FE9
:10201000BB1F621773078407BA0720F0621B730B9C
:10202000840BBA0BEE1F88F7E095089504D06894EE
:10203000B111B5C0089598D088F09F5790F0B92F8E
:102040009927B751A0F0D1F0660F771F881F991F0D
:102050001AF0BA95C9F712C0B13081F09FD0B1E043
:1020600008959CC0672F782F8827B85F39F0B93F53
:10207000CCF3869577956795B395D9F73EF490950F
:102080008095709561957F4F8F4F9F4F0895E8948D
:1020900009C097FB3EF490958095709561957F4FB0
:1020A0008F4F9F4F9923A9F0F92F96E9BB2793955E
:1020B000F695879577956795B795F111F8CFFAF46E
:1020C000BB0F11F460FF1BC06F5F7F4F8F4F9F4F9F
:1020D00016C0882311F096E911C0772321F09EE8FD
:1020E000872F762F05C0662371F096E8862F70E063
:1020F00060E02AF09A95660F771F881FDAF7880F3D
:102100009695879597F9089597F99F6780E870E00D
:1021100060E008959FEF80EC089500240A9416165D
:10212000170618060906089500240A9412161306C5
:10213000140605060895092E0394000C11F4882353
:1021400052F0BB0F40F4BF2B11F460FF04C06F5F6F
:102150007F4F8F4F9F4F089557FD9058440F551F45
:1021600059F05F3F71F04795880F97FB991F61F019
:102170009F3F79F087950895121613061406551F90
:10218000F2CF4695F1DF08C0161617061806991FFC
:10219000F1CF86957105610508940895E894BB27F1
:1021A00066277727CB0197F9089528D108F48FEF98
:1021B00008950EF047C1AECF6894A6CFD5DFC8F31F
:1021C0009923D1F3C6F3DF93CF931F930F93FF921D
:1021D000C92FDD2788232AF02197660F771F881FD4
:1021E000DAF720E030E040E85FEB9FE3883920F049
:1021F000803E30F021968F774DDEE4EAF0E003C0B8
:1022000049DEE1EDF0E02CD18B01BE01EC01FB2EAB
:102210006F5771097595771F880B990B3ADF28E185
:1022200032E741E35FE316D0AF2D9801AE01FF9096
:102230000F911F91CF91DF913EDE7DCF0BD07BCFF1
:102240006CDF28F071DF18F0952309F05DCF62CFC5
:102250001124A5CF81DFA0F3959FD1F3950F50E016
:10226000551F629FF001729FBB27F00DB11D639F48
:10227000AA27F00DB11DAA1F649F6627B00DA11DEE
:10228000661F829F2227B00DA11D621F739FB00D94
:10229000A11D621F839FA00D611D221F749F332704
:1022A000A00D611D231F849F600D211D822F762F9D
:1022B0006A2F11249F5750408AF0E1F088234AF09A
:1022C000EE0FFF1FBB1F661F771F881F91505040E6
:1022D000A9F79E3F510570F017CF61CF5F3FECF338
:1022E000983EDCF3869577956795B795F795E795D2
:1022F0009F5FC1F7FE2B880F911D9695879597F9E3
:102300000895FA01EE0FFF1F30962105310599F16E
:102310006115710561F48038BFE39B0749F168944A
:102320009038810561F08038BFEF9B0741F0992319
:1023300042F5FF3FE1053105210511F1E8940894CC
:10234000E795D901AA2329F4AB2FBE2FF85FD0F36C
:1023500010C0FF5F70F4A695E0F7F73950F019F060
:10236000FF3A38F49F779F930CD00F9007FC90585A
:1023700008953EF0CFCE60E070E080E89FE30895DE
:102380004FE79F775F934F933F932F9317DF2F91E3
:102390003F914F915F9152DF05C019F40EF0B4CE1A
:1023A000FDCEB8CEE1DEC8F39638C0F707F80F923D
:1023B000E8942BE33AEA48EB5FE74EDF0F920F9287
:1023C0000F924DB75EB70F92ADD0EEEFF0E048D070
:1023D0004F915F91EF91FF91E595EE1FFF1F49F03F
:1023E000FE57E0684427EE0F441FFA95E1F7419548
:1023F000550B64D00F9007FE58C00895990F000840
:10240000550FAA0BE0E8FEEF16161706E807F907C6
:10241000C0F012161306E407F50798F0621B730B61
:10242000840B950B39F40A2661F0232B242B252BE2
:1024300021F408950A2609F4A140A6958FEF811D85
:10244000811D08959F3F31F0915020F48795779535
:102450006795B795880F911D9695879597F908957B
:10246000DF93CF931F930F93FF92EF92DF927B0145
:102470008C01689405C0DA2EEF01ECDEFE01E894D1
:10248000A5912591359145915591AEF3EF0113DD5D
:10249000FE019701A801DA9479F7DF90EF90FF90A1
:1024A0000F911F91CF91DF9108959B01AC0160E0E6
:1024B00070E080E89FE352CD27CEC4CF55DEE8F32D
:1024C0009923D9F3940F511DBBF39150504094F0D0
:1024D00059F0882332F0660F771F881F91505040C3
:1024E000C1F79E3F510544F7880F911D969587953A
:1024F00097F908955F3FACF0983E9CF0BB27869516
:1025000077956795B79508F4B1609395C1F7BB0FC0
:1025100058F711F460FFE8CF6F5F7F4F8F4F9F4FE9
:10252000E3CF3DCEFA01DC01AA0FBB1F9B01AC013A
:10253000BF5728F422273327442750781FC0B751AC
:1025400088F4AB2F0024469537952795011CA39559
:10255000D2F3002069F0220F331F441FB395DAF342
:102560000DD097CC61307105A0E88A07B94630F4E8
:102570009B01AC016627772788279078309621F059
:1025800020833183428353830895FC01918D228DF2
:10259000892F90E0805C9F4F821B91098F73992750
:1025A0000895FC01918D828D981731F0828DE80F8E
:1025B000F11D858D90E008958FEF9FEF0895FC0148
:1025C000918D828D981761F0828DDF01A80FB11D6A
:1025D0005D968C91928D9F5F9F73928F90E008958E
:1025E0008FEF9FEF089588EF93E1892B39F080E01A
:1025F00090E0892B19F0FCD081110DC080E090E0B3
:10260000892B71F080E090E0892B51F00E9400004E
:10261000811104C008950E940000F0CF0C940000C6
:102620000895FC01848DDF01A80FB11DA35ABF4F8F
:102630002C91848D90E001968F739927848FA689C1
:10264000B7892C93A089B1898C9180648C93938DE8
:10265000848D981306C00288F389E02D80818F7DD8
:1026600080830895EF92FF920F931F93CF93DF9390
:10267000EC0181E0888F9B8D8C8D981305C0E889D3
:10268000F989808185FD23C0F62E0B8D10E00F5F48
:102690001F4F0F731127E02E8C8DE8120BC00FB661
:1026A00007FCFACFE889F989808185FFF5CFCE0153
:1026B000B8DFF2CF8B8DFE01E80FF11DE35AFF4F1B
:1026C000F0820B8FEA89FB898081806207C0EE89E6
:1026D000FF896083E889F98980818064808381E053
:1026E00090E0DF91CF911F910F91FF90EF900895AF
:1026F000CF93DF93EC01888D8823C1F0EA89FB89B1
:10270000808185FD05C0A889B9898C9186FD0EC0A0
:102710000FB607FCF5CF808185FFF2CFA889B98974
:102720008C9185FFEDCFCE017CDFE8CFDF91CF919B
:1027300008951F920F920FB60F9211240BB60F92AD
:102740002F938F939F93EF93FF93E0916E03F091FC
:102750006F038081E0917403F091750382FD12C0D4
:102760009081809177038F5F8F7320917803821718
:1027700051F0E0917703F0E0E25AFC4F958F80939F
:10278000770301C08081FF91EF919F918F912F91ED
:102790000F900BBE0F900FBE0F901F9018951F92B9
:1027A0000F920FB60F9211240BB60F922F933F93F7
:1027B0004F935F936F937F938F939F93AF93BF9349
:1027C000EF93FF938EE593E02CDFFF91EF91BF91A4
:1027D000AF919F918F917F916F915F914F913F91B9
:1027E0002F910F900BBE0F900FBE0F901F9018955A
:1027F0008EE593E0CADE21E0892B09F420E0822FE8
:102800000895EEE5F3E01382128288EE93E0A0E0F3
:10281000B0E084839583A683B7838FE292E09183AF
:10282000808385EC90E09587848784EC90E097879F
:10283000868780EC90E0918B808B81EC90E0938B8D
:10284000828B82EC90E0958B848B86EC90E0978B6A
:10285000868B118E128E138E148E0895089530D1AA
:10286000FDDF0E949C04C3EFD2E10E94190520976E
:10287000E1F3B9DEFACFD7C36EC4CF92DF92EF9205
:10288000FF920F931F93CF93DF936C017A018B011B
:10289000C0E0D0E0CE15DF0581F0D8016D918D014B
:1028A000D601ED91FC910190F081E02DC6010995D2
:1028B000892B11F02196EECF7E01C701DF91CF91D8
:1028C0001F910F91FF90EF90DF90CF9008956115C9
:1028D000710579F0FB0101900020E9F73197AF0114
:1028E000461B570BDC01ED91FC910280F381E02D3A
:1028F000099480E090E00895EF92FF920F931F9368
:10290000CF93DF938C017B01C0E0D0E0F701EC0FA7
:10291000FD1F6491662361F0D801ED91FC91019057
:10292000F081E02DC8010995892B11F02196EECF99
:10293000CE01DF91CF911F910F91FF90EF900895FD
:10294000C6CF1F920F920FB60F9211242F933F9371
:102950008F939F93AF93BF938091FC039091FD035E
:10296000A091FE03B091FF033091FB0323E0230FFE
:102970002D3720F40196A11DB11D05C026E8230FB7
:102980000296A11DB11D2093FB038093FC0390933D
:10299000FD03A093FE03B093FF0380910004909188
:1029A0000104A0910204B09103040196A11DB11D80
:1029B0008093000490930104A0930204B093030455
:1029C000BF91AF919F918F913F912F910F900FBE2B
:1029D0000F901F9018952FB7F8946091FC03709199
:1029E000FD038091FE039091FF032FBF08953FB731
:1029F000F8948091000490910104A0910204B09198
:102A0000030426B5A89B05C02F3F19F00196A11D10
:102A1000B11D3FBFBA2FA92F982F8827820F911D74
:102A2000A11DB11DBC01CD0142E0660F771F881FBB
:102A3000991F4A95D1F708958F929F92AF92BF92B6
:102A4000CF92DF92EF92FF926B017C01D0DF4B01BE
:102A50005C01C114D104E104F104F1F041D2C7DFFB
:102A6000DC01CB0188199909AA09BB09883E93406A
:102A7000A105B10570F321E0C21AD108E108F108FF
:102A800088EE880E83E0981EA11CB11CC114D104ED
:102A9000E104F10421F7DDCFFF90EF90DF90CF90BC
:102AA000BF90AF909F908F9008958230910538F03D
:102AB000880F991F880F991F05970197F1F70895BF
:102AC000789484B5826084BD84B5816084BD85B509
:102AD000826085BD85B5816085BDEEE6F0E08081D0
:102AE00081608083E1E8F0E01082808182608083F1
:102AF000808181608083E0E8F0E080818160808374
:102B0000E1EBF0E0808184608083E0EBF0E08081A5
:102B100081608083E1E9F0E0808182608083808150
:102B200081608083E0E9F0E0808181608083EAE772
:102B3000F0E08081846080838081826080838081F6
:102B4000816080838081806880831092C1000895B5
:102B5000883038F0883120F09FE1981B892F01C020
:102B60008FEF2091A90190E4299F90011124877093
:102B7000822B80937C0080917A00806480937A001D
:102B800080917A0086FDFCCF8091780020917900B9
:102B900090E0922B08951F93CF93DF93182FEB01B2
:102BA00061E096D0209711F460E004C0CF3FD105DA
:102BB00031F461E0812FDF91CF911F91C5C0E12FEA
:102BC000F0E0E758FE4FE4918E2F90E0FC01319742
:102BD000EA30F10508F045C0ED56FF4F02C284B55A
:102BE000806884BDC7BD42C084B5806284BDC8BD55
:102BF0003DC080918000806880938000D0938900E0
:102C0000C093880033C080918000806280938000F0
:102C1000D0938B00C0938A0029C08091B000806857
:102C20008093B000C093B30021C08091B000806257
:102C30008093B000C093B40019C080919000806868
:102C400080939000D0939900C09398000FC080911A
:102C50009000806280939000D0939B00C0939A0074
:102C600005C0C038D1050CF0A4CF9ECFDF91CF9125
:102C70001F91089590E0FC013197EA30F10538F595
:102C8000E356FF4FAEC1809180008F7703C08091E3
:102C900080008F7D80938000089584B58F7702C077
:102CA00084B58F7D84BD08958091B0008F7703C077
:102CB0008091B0008F7D8093B00008958091900046
:102CC0008F7703C0809190008F7D8093900008954E
:102CD000CF93DF9390E0FC01E756FE4F2491FC0177
:102CE000E754FE4F8491882361F190E0880F991F8B
:102CF000FC01E351FE4FC591D491FC01ED51FE4F13
:102D0000A591B491611109C09FB7F894888120956D
:102D100082238883EC912E230BC0623061F49FB72D
:102D2000F8948881322F309583238883EC912E2B61
:102D30002C939FBF06C08FB7F894E8812E2B288371
:102D40008FBFDF91CF9108951F93CF93DF93282FEB
:102D500030E0F901E758FE4F8491F901E756FE4F44
:102D6000D491F901E754FE4FC491CC23B9F0162F4A
:102D7000811180DFEC2FF0E0EE0FFF1FED51FE4FD1
:102D8000A591B4919FB7F894111104C08C91D0957E
:102D9000D82302C0EC91DE2BDC939FBFDF91CF9153
:102DA0001F910895CF93DF93282F30E0F901E75862
:102DB000FE4F8491F901E756FE4FD491F901E75493
:102DC000FE4FC491CC2389F0811154DFEC2FF0E049
:102DD000EE0FFF1FE752FE4FA591B491EC91ED234A
:102DE00081E090E021F480E002C080E090E0DF919B
:102DF000CF910895CF92DF92EF92FF920F931F939E
:102E0000CF93DF93F82ED62FE42E07E010E0C0E03A
:102E100087E0C82ED12C61E08D2F96DF8F2DE11039
:102E200009C0C0DF9601201B310B01C0880F2A9515
:102E3000EAF706C0B7DF002E01C0880F0A94EAF750
:102E4000C82B60E08D2F80DF0150110920F78C2FF7
:102E5000DF91CF911F910F91FF90EF90DF90CF9076
:102E600008954F925F926F927F92AF92BF92CF92EE
:102E7000DF92EF92FF920F931F93CF93DF93CDB723
:102E8000DEB729013A019B01AC0124193509460935
:102E9000570989899A89AB89BC89BC01CD016A1916
:102EA0007B098C099D091DD0A801970124193509BA
:102EB000460957097AD0CA01B9016A0D7B1D8C1DDC
:102EC0009D1DDF91CF911F910F91FF90EF90DF90AB
:102ED000CF90BF90AF907F906F905F904F9008958C
:102EE0000895DB018F939F9385D0BF91AF91A29FEF
:102EF000800D911DA39F900DB29F900D11240895F8
:102F0000991B79E004C0991F961708F0961B881F3B
:102F10007A95C9F780950895AA1BBB1B51E107C09C
:102F2000AA1FBB1FA617B70710F0A61BB70B881F59
:102F3000991F5A95A9F780959095BC01CD010895E8
:102F400097FB072E16F4009406D077FD08D0E4DF37
:102F500007FC05D03EF4909581959F4F089570959C
:102F600061957F4F0895A1E21A2EAA1BBB1BFD019C
:102F70000DC0AA1FBB1FEE1FFF1FA217B307E40758
:102F8000F50720F0A21BB30BE40BF50B661F771FB0
:102F9000881F991F1A9469F7609570958095909590
:102FA0009B01AC01BD01CF010895052E97FB16F4DE
:102FB00000940FD057FD05D0D6DF07FC02D046F4B1
:102FC00008C050954095309521953F4F4F4F5F4F2A
:102FD000089590958095709561957F4F8F4F9F4F85
:102FE0000895EE0FFF1F0024001C0BBE0790F69102
:102FF000E02D099409D0A59F900DB49F900DA49F3A
:10300000800D911D11240895A29FB001B39FC001AE
:10301000A39F700D811D1124911DB29F700D811D04
:103020001124911D08950F931F93CF93DF93823046
:10303000910510F482E090E0E0910604F09107041D
:1030400020E030E0A0E0B0E0309719F140815181FC
:103050000281138148175907C8F08417950769F44E
:10306000109731F012960C93129713961C9327C069
:10307000009306041093070422C02115310519F0AE
:103080004217530718F49A01BD01EF01DF01F8015F
:10309000DBCF21153105F9F0281B390B2430310520
:1030A00080F48A819B816115710521F0FB01938376
:1030B000828304C09093070480930604FE01329635
:1030C00044C0FE01E20FF31F819391932250310916
:1030D000398328833AC02091040430910504232BBE
:1030E00041F42091020130910301309305042093B3
:1030F000040420910001309101012115310541F4B2
:103100002DB73EB74091040150910501241B350BAA
:10311000E0910404F0910504E217F307A0F42E1BDC
:103120003F0B2817390778F0AC014E5F5F4F24172B
:10313000350748F04E0F5F1F509305044093040479
:103140008193919302C0E0E0F0E0CF01DF91CF9155
:103150001F910F910895CF93DF93009709F481C0D9
:10316000FC01329713821282A0910604B0910704E9
:10317000109781F420813181820F931F20910404E4
:10318000309105042817390751F5F0930504E093B1
:10319000040467C0ED0120E030E0CE17DF0740F403
:1031A0004A815B819E0141155105F1F0EA01F5CF9D
:1031B000D383C28340815181840F951FC817D907DB
:1031C00059F488819981840F951F02969183808399
:1031D0008A819B81938382832115310529F4F093A1
:1031E0000704E09306043DC0E901FB83EA834991AB
:1031F0005991C40FD51FEC17FD0761F480819181AF
:10320000840F951F0296E9019983888382819381B7
:103210009B838A83E0E0F0E012968D919C91139756
:10322000009719F0FD01DC01F7CF8D919C9111976A
:103230009D012E5F3F4F820F931F20910404309118
:1032400005042817390769F4309729F41092070408
:103250001092060402C013821282B0930504A09358
:103260000404DF91CF9108950F931F93CF93DF93C1
:10327000CDB7DEB72E970FB6F894DEBF0FBECDBF29
:103280000D891E8986E08C831A8309838FEF9FE75F
:103290009E838D83AE01475E5F4F6F89788DCE012F
:1032A000019610D0EF81F885E00FF11F10822E9665
:1032B0000FB6F894DEBF0FBECDBFDF91CF911F9147
:1032C0000F9108952F923F924F925F926F927F924B
:1032D0008F929F92AF92BF92CF92DF92EF92FF9226
:1032E0000F931F93CF93DF93CDB7DEB72B970FB616
:1032F000F894DEBF0FBECDBF6C017B018A01FC01DB
:1033000017821682838181FFBFC1CE0101963C01E5
:10331000F6019381F70193FD859193FF81917F01E0
:10332000882309F4ADC1853239F493FD859193FF6B
:1033300081917F01853221F4B60190E0D6D1E8CFAA
:10334000912C212C312CFFE1F315D8F08B3279F040
:1033500038F4803279F08332A1F4232D20611DC02E
:103360008D3261F0803369F4232D216016C0832DE6
:103370008260382EE32DE4603E2E2AC0F32DF860E3
:103380001DC037FC2DC020ED280F2A3040F08E32B2
:10339000B9F436FC75C1232D2064322E19C036FED7
:1033A00006C08AE0989E200D1124922E11C0EAE0FA
:1033B0002E9E200D1124222EF32DF0623F2E08C0E8
:1033C0008C3621F4832D8068382E02C0883641F473
:1033D000F70193FD859193FF81917F018111B3CF17
:1033E000982F9F7D9554933028F40C5F1F4F9FE3D7
:1033F00099830DC0833631F0833771F0833509F03E
:1034000055C020C0F801808189830E5F1F4F88243A
:103410008394912C530112C02801F2E04F0E511CED
:10342000F801A080B18036FE03C0692D70E002C0B3
:103430006FEF7FEFC5014ED14C018201F32DFF7775
:103440003F2E15C0280122E0420E511CF801A08039
:10345000B18036FE03C0692D70E002C06FEF7FEFD0
:10346000C5012DD14C01F32DF0683F2E820133FCB4
:1034700019C0822D90E088169906A0F4B60180E26A
:1034800090E033D12A94F5CFF50137FC859137FED2
:1034900081915F01B60190E028D121102A9421E0AA
:1034A000821A91088114910479F7E1C0843611F0F1
:1034B000893639F5F80137FE07C060817181828154
:1034C00093810C5F1F4F08C060817181072E000C33
:1034D000880B990B0E5F1F4FF32DFF763F2E97FF42
:1034E00009C090958095709561957F4F8F4F9F4F44
:1034F000F0683F2E2AE030E0A30133D1882E8618F1
:1035000044C0853731F4232D2F7EB22E2AE030E0DF
:1035100025C0932D997FB92E8F36C1F018F48835C8
:1035200079F0AEC0803719F0883721F0A9C0E92FB3
:10353000E061BE2EB4FE0DC0FB2DF460BF2E09C0AD
:1035400034FE0AC0292F2660B22E06C028E030E0E3
:1035500005C020E130E002C020E132E0F801B7FE12
:1035600007C060817181828193810C5F1F4F06C00B
:103570006081718180E090E00E5F1F4FA301F1D068
:10358000882E8618FB2DFF773F2E36FE0DC0232D8B
:103590002E7FA22E891458F434FE0BC032FC09C0D1
:1035A000832D8E7EA82E05C0B82CA32C03C0B82C6A
:1035B00001C0B92CA4FE0FC0FE01E80DF11D8081F1
:1035C000803321F49A2D997EA92E09C0A2FE06C04F
:1035D000B394B39404C08A2D867809F0B394A3FC05
:1035E00010C0A0FE06C0B21480F4280C922C9B18C8
:1035F0000DC0B21458F4B60180E290E076D0B394D6
:10360000F8CFB21418F42B1802C0982C212CA4FE69
:103610000FC0B60180E390E068D0A2FE16C0A1FC06
:1036200003C088E790E002C088E590E0B6010CC0D6
:103630008A2D867851F0A1FE02C08BE201C080E2A3
:10364000A7FC8DE2B60190E050D0891430F4B601A9
:1036500080E390E04AD09A94F8CF8A94F301E80D81
:10366000F11D8081B60190E040D08110F6CF22207C
:1036700009F44ECEB60180E290E037D02A94F7CF1D
:10368000F6018681978102C08FEF9FEF2B960FB6D0
:10369000F894DEBF0FBECDBFDF91CF911F910F9188
:1036A000FF90EF90DF90CF90BF90AF909F908F9062
:1036B0007F906F905F904F903F902F900895FC0106
:1036C0000590615070400110D8F7809590958E0F4D
:1036D0009F1F0895FC016150704001900110D8F7C0
:1036E000809590958E0F9F1F08950F931F93CF93F2
:1036F000DF93FB01238121FD03C08FEF9FEF2CC0DF
:1037000022FF16C046815781248135814217530715
:1037100044F4A081B1819D012F5F3F4F318320830D
:103720008C93268137812F5F3F4F3783268314C0C8
:103730008B01EC01FB010084F185E02D0995892BBB
:10374000E1F6D80116968D919C91179701961796E0
:103750009C938E931697CE01DF91CF911F910F917D
:103760000895FA01AA27283051F1203181F1E89417
:103770006F936E7F6E5F7F4F8F4F9F4FAF4FB1E064
:103780003ED0B4E03CD0670F781F891F9A1FA11D5F
:10379000680F791F8A1F911DA11D6A0F711D811D60
:1037A000911DA11D20D009F468943F912AE0269F25
:1037B00011243019305D3193DEF6CF010895462F84
:1037C0004770405D4193B3E00FD0C9F7F6CF462F65
:1037D0004F70405D4A3318F0495D31FD40524193CE
:1037E00002D0A9F7EACFB4E0A6959795879577958B
:1037F0006795BA95C9F700976105710508959B0112
:10380000AC010A2E06945795479537952795BA959A
:10381000C9F7620F731F841F951FA01D089511E043
:10382000CFEFD0E003C0FE01DCDB2196C030D10732
:06383000D1F7F894FFCF70
:10383600000008042000800032003200320004003C
:103846000F00090001000000803F85EBD13E85EBAB
:10385600D1BE0000803F1F85EB3E8FC275BE0000C3
:10386600803F7B14AE3EC3F5A8BE3333333F295C9D
:103876004F3F666666BF3333333F6666663FC3F5C2
:1038860068BF3333333F3333733F52B89EBE33334F
:1038960013401F856B3E6666E6BE333313401F85B5
:1038A600EB3E85EBD1BE333313400AD7A33E14AEAD
:1038B60007BF33331340D7A3F03EA470BDBE3333E6
:1038C6001340EC51383F7B14AEBE333313403D0AF0
:1038D600573ED7A3F0BE0F020101000040001400BE
:1038E600540055472042494F4D45444943414C20D9
:1038F600454E00486561727420526174653A202510
:10390600303364005765696768743A20253033643C
:103916000020253032642F253032642F2530326462
:1039260020253032643A2530326400000000004A17
:10393600074B0700000000AE083D1400000000978A
:103946000A5B0BEC0BE50A1F0CF50A00000000E110
:103956000EB50E890E910EA50EB40E0000000032B3
:0C396600133D14C512DF12D112781300BB
:00000001FF
