S00D0000426C616E6B2E737265632F
S113000090C00000B5C00000B3C00000B1C0000043
S1130010AFC00000ADC00000ABC00000A9C000002C
S1130020A7C00000A5C00000A3C00000A1C000003C
S11300309FC000009DC000009BC0000099C000004C
S113004097C0000095C00000D2C3000091C000001A
S11300508FC000008DC000008BC0000089C000006C
S113006087C0000085C0000083C0000081C000007C
S11300707FC000007DC000007BC0000079C000008C
S113008077C0000075C0000073C000001D05200586
S11300901305170537053705240528052E053205F0
S11300A0000000010200090A000000000403080720
S11300B0000000000000000000000000000000003C
S11300C0010204081020408001020408102040802E
S11300D0010204081020408080402010080402011E
S11300E002020202020202020404040404040404DC
S11300F003030303030303030101010101010101DC
S11301000000200023002600290000002200250012
S113011028002B0000002100240027002A0053019E
S1130120560111241FBECFEFD0E4DEBFCDBF11E0D6
S1130130A0E0B1E0EEEBFEE000E00BBF02C00790F0
S11301400D92AC31B107D9F721E0ACE1B1E001C0C7
S11301501D92A234B207E1F710E0C0E9D0E003C079
S11301602197FE0162D5CF38D107D1F735D39BC68D
S113017047CFCF92DF92EF92FF92BC018FEF93E0D3
S113018041D5072E000C880B990B17D220E030E0E4
S113019040E85FE343D16B017C01609110017091F1
S11301A01101072E000C880B990B07D2A7019601A9
S11301B090D2FF90EF90DF90CF900895CF92DF928E
S11301C0EF92FF920F931F93CF93DF93D82FC62FF5
S11301D000E010E0C12CD12C7601609108017091EF
S11301E0090106171707B4F48D2FF1D3C2DF9B0161
S11301F0AC01C701B60113D16B017C01609106010A
S113020070910701072E000C880B990B5FD30F5FC9
S11302101F4FE3CF072E000C880B990BCED19B0107
S1130220AC01C701B6015FD16B017C01C13069F03B
S113023038F0C230D1F460910A0170910B0109C009
S113024060910E0170910F0104C060910C017091D6
S11302500D01072E000C880B990BAFD19B01AC014B
S1130260C701B60140D16B017C01C701B601DF9122
S1130270CF911F910F91FF90EF90DF90CF90089551
S113028020E843E062E088E291E0B5D060E080E0FD
S113029095DF60931C0170931D0180931E01909360
S11302A01F010895089588E291E005C088E291E075
S11302B000C008959BC2FC0187E191E09183808393
S11302C0158216821782108680E090E0A0E8BFE3D2
S11302D081879287A387B4870895FC01838132D4F0
S11302E021E0892B09F020E0822F0895CF92DF923C
S11302F0EF92FF92CF93DF93EC016A017B01CE0171
S1130300ECDF811104C0C701B601E0D2F8CFDF9160
S1130310CF91FF90EF90DF90CF900895CF92DF922E
S1130320EF92FF920F931F93CF93DF93EC0140E082
S113033050E0BA01DBDFEFB6F89441E06A818B81CB
S113034029D4082F41E06A818B8124D4182F41E0FD
S11303506A818B811FD4F82EC12CD12C8C8190E022
S1130360C816D90650F461E08A81BED360E08A8160
S1130370BBD32FEFC21AD20AF1CFEFBE812F90E088
S1130380A0E0B0E0BA2FA92F982F8827A02BAC01AA
S1130390BD014F29802F880F880B90E0A0E0B0E0CA
S11303A0B82FAA27992788278A019B01082B192B84
S11303B02A2B3B2BC901B801DF91CF911F910F91DB
S11303C0FF90EF90DF90CF900895CF93DF93EC01EF
S11303D0603441F0603821F0603231F482E003C0CF
S11303E081E001C083E08C8360E08A817DD3CE010B
S11303F0DF91CF9193CF1F93CF93DF93EC01842FA1
S1130400122F4A836B8361E033D360E08B8130D356
S1130410612FCE01DF91CF911F91D7CF5058BB27C9
S1130420AA270ED01CC10DD130F012D120F031F426
S11304309F3F11F41EF402C10EF4E095E7FBF8C0EF
S1130440E92F1ED180F3BA17620773078407950753
S113045018F071F49EF536C10EF4E0950B2EBA2F08
S1130460A02D0B01B90190010C01CA01A0011124B6
S1130470FF27591B99F0593F50F4503E68F11A1662
S1130480F040A22F232F342F4427585FF3CF4695F3
S113049037952795A795F0405395C9F77EF41F1615
S11304A0BA0B620B730B840BBAF09150A1F0FF0FDF
S11304B0BB1F661F771F881FC2F70EC0BA0F621FCB
S11304C0731F841F48F4879577956795B795F795BB
S11304D09E3F08F0B3CF9395880F08F09927EE0F4D
S11304E09795879508950CD0BAC0B2D040F0A9D0A2
S11304F030F021F45F3F19F09BC05111E4C09EC05D
S1130500BFD098F39923C9F35523B1F3951B550B29
S1130510BB27AA2762177307840738F09F5F5F4FD2
S1130520220F331F441FAA1FA9F333D00E2E3AF013
S1130530E0E830D091505040E695001CCAF729D02D
S1130540FE2F27D0660F771F881FBB1F261737077C
S11305504807AB07B0E809F0BB0B802DBF01FF27AC
S113056093585F4F2AF09E3F510568F061C0ABC0BD
S11305705F3FECF3983EDCF3869577956795B795E6
S1130580F7959F5FC9F7880F911D9695879597F901
S11305900895E1E0660F771F881FBB1F621773077A
S11305A08407BA0720F0621B730B840BBA0BEE1F8F
S11305B088F7E0950895E89409C097FB3EF4909578
S11305C08095709561957F4F8F4F9F4F9923A9F028
S11305D0F92F96E9BB279395F695879577956795B7
S11305E0B795F111F8CFFAF4BB0F11F460FF1BC0FB
S11305F06F5F7F4F8F4F9F4F16C0882311F096E98E
S113060011C0772321F09EE8872F762F05C066233B
S113061071F096E8862F70E060E02AF09A95660FF4
S1130620771F881FDAF7880F9695879597F90895AD
S113063097F99F6780E870E060E008959FEF80EC91
S1130640089500240A941616170618060906089534
S113065000240A9412161306140605060895092E9A
S11306600394000C11F4882352F0BB0F40F4BF2B09
S113067011F460FF04C06F5F7F4F8F4F9F4F089549
S113068057FD9058440F551F59F05F3F71F047953F
S1130690880F97FB991F61F09F3F79F08795089524
S11306A0121613061406551FF2CF4695F1DF08C043
S11306B0161617061806991FF1CF86957105610560
S11306C008940895E894BB2766277727CB0197F908
S11306D008950BD0C4CFB5DF28F0BADF18F0952306
S11306E009F0A6CFABCF1124EECFCADFA0F3959FBC
S11306F0D1F3950F50E0551F629FF001729FBB2705
S1130700F00DB11D639FAA27F00DB11DAA1F649FB0
S11307106627B00DA11D661F829F2227B00DA11D63
S1130720621F739FB00DA11D621F839FA00D611DE9
S1130730221F749F3327A00D611D231F849F600D0A
S1130740211D822F762F6A2F11249F5750408AF043
S1130750E1F088234AF0EE0FFF1FBB1F661F771FCF
S1130760881F91505040A9F79E3F510570F060CF0B
S1130770AACF5F3FECF3983EDCF3869577956795B7
S1130780B795F795E7959F5FC1F7FE2B880F911DED
S11307909695879597F9089580E090E0892B41F02C
S11307A080E090E0892B21F00E94000081110DC0AF
S11307B080E090E0892B71F080E090E0892B51F08B
S11307C00E940000811104C008950E940000F0CF2F
S11307D00C94000008950895B2D0FDDF51DDCCECF7
S11307E0D3E060DD2097E9F3D7DFFBCFD3C21F92BC
S11307F00F920FB60F9211242F933F938F939F93D1
S1130800AF93BF938091360190913701A091380145
S1130810B09139013091350123E0230F2D3720F4B5
S11308200196A11DB11D05C026E8230F0296A11D46
S1130830B11D209335018093360190933701A09325
S11308403801B093390180913A0190913B01A09114
S11308503C01B0913D010196A11DB11D80933A0167
S113086090933B01A0933C01B0933D01BF91AF91A4
S11308709F918F913F912F910F900FBE0F901F90DA
S113088018953FB7F89480913A0190913B01A0915B
S11308903C01B0913D0126B5A89B05C02F3F19F03E
S11308A00196A11DB11D3FBFBA2FA92F982F8827EC
S11308B0820F911DA11DB11DBC01CD0142E0660F47
S11308C0771F881F991F4A95D1F708958F929F9299
S11308D0AF92BF92CF92DF92EF92FF926B017C01B5
S11308E0D0DF4B015C01C114D104E104F104F1F047
S11308F088D1C7DFDC01CB0188199909AA09BB0992
S1130900883E9340A105B10570F321E0C21AD108D5
S1130910E108F10888EE880E83E0981EA11CB11C42
S1130920C114D104E104F10421F7DDCFFF90EF906D
S1130930DF90CF90BF90AF909F908F900895789460
S113094084B5826084BD84B5816084BD85B58260D0
S113095085BD85B5816085BDEEE6F0E0808181606E
S11309608083E1E8F0E0108280818260808380816E
S113097081608083E0E8F0E0808181608083E1EB46
S1130980F0E0808184608083E0EBF0E0808181602E
S11309908083E1E9F0E080818260808380818160EE
S11309A08083E0E9F0E0808181608083EAE7F0E021
S11309B08081846080838081826080838081816083
S11309C080838081806880831092C100089588307C
S11309D038F0883120F09FE1981B892F01C08FEFF8
S11309E02091120190E4299F900111248770822B99
S11309F080937C0080917A00806480937A00809157
S1130A007A0086FDFCCF809178002091790090E0F7
S1130A10922B089590E0FC013197EA30F10538F506
S1130A20EA5BFF4F02C1809180008F7703C0809101
S1130A3080008F7D80938000089584B58F7702C0F5
S1130A4084B58F7D84BD08958091B0008F7703C0F5
S1130A508091B0008F7D8093B000089580919000C4
S1130A608F7703C0809190008F7D809390000895CC
S1130A70CF93DF9390E0FC01E054FF4F2491FC01FD
S1130A80E052FF4F8491882361F190E0880F991F11
S1130A90FC01EC5EFE4FC591D491FC01E65FFE4F74
S1130AA0A591B491611109C09FB7F89488812095EC
S1130AB082238883EC912E230BC0623061F49FB7AC
S1130AC0F8948881322F309583238883EC912E2BE0
S1130AD02C939FBF06C08FB7F894E8812E2B2883F0
S1130AE08FBFDF91CF9108951F93CF93DF93282F6A
S1130AF030E0F901E056FF4F8491F901E054FF4FD3
S1130B00D491F901E052FF4FC491CC23B9F0162FD0
S1130B10811180DFEC2FF0E0EE0FFF1FE65FFE4F48
S1130B20A591B4919FB7F894111104C08C91D095FC
S1130B30D82302C0EC91DE2BDC939FBFDF91CF91D1
S1130B401F910895CF93DF93282F30E0F901E056E9
S1130B50FF4F8491F901E054FF4FD491F901E05221
S1130B60FF4FC491CC2389F0811154DFEC2FF0E0C6
S1130B70EE0FFF1FE050FF4FA591B491EC91ED23D0
S1130B8081E090E021F480E002C080E090E0DF9119
S1130B90CF910895CF92DF92EF92FF920F931F931C
S1130BA0CF93DF93F82ED62FE42E07E010E0C0E0B9
S1130BB087E0C82ED12C61E08D2F96DF8F2DE110B8
S1130BC009C0C0DF9601201B310B01C0880F2A9594
S1130BD0EAF706C0B7DF002E01C0880F0A94EAF7CF
S1130BE0C82B60E08D2F80DF0150110920F78C2F76
S1130BF0DF91CF911F910F91FF90EF90DF90CF90F5
S1130C000895089597FB072E16F4009406D077FDF7
S1130C1008D014D007FC05D03EF4909581959F4FE1
S1130C200895709561957F4F0895EE0FFF1F00247E
S1130C30001C0BBE0790F691E02D0994AA1BBB1B68
S1130C4051E107C0AA1FBB1FA617B70710F0A61BC8
S1130C50B70B881F991F5A95A9F780959095BC01E9
S1130C60CD0108950F931F93CF93DF9382309105A5
S1130C7010F482E090E0E0914001F091410120E025
S1130C8030E0A0E0B0E0309719F140815181028159
S1130C90138148175907C8F08417950769F410970A
S1130CA031F012960C93129713961C9327C000935D
S1130CB040011093410122C02115310519F042175A
S1130CC0530718F49A01BD01EF01DF01F801DBCFEE
S1130CD021153105F9F0281B390B2430310580F436
S1130CE08A819B816115710521F0FB0193838283C5
S1130CF004C09093410180934001FE01329644C0A8
S1130D00FE01E20FF31F819391932250310939833D
S1130D1028833AC020913E0130913F01232B41F4B6
S1130D20209102013091030130933F0120933E0151
S1130D3020910001309101012115310541F42DB7B5
S1130D403EB74091040150910501241B350BE091FD
S1130D503E01F0913F01E217F307A0F42E1B3F0B75
S1130D602817390778F0AC014E5F5F4F2417350719
S1130D7048F04E0F5F1F50933F0140933E01819313
S1130D80919302C0E0E0F0E0CF01DF91CF911F9199
S1130D900F910895CF93DF93009709F481C0FC016C
S1130DA0329713821282A0914001B09141011097B1
S1130DB081F420813181820F931F20913E01309173
S1130DC03F012817390751F5F0933F01E0933E01A5
S1130DD067C0ED0120E030E0CE17DF0740F44A8120
S1130DE05B819E0141155105F1F0EA01F5CFD383F2
S1130DF0C28340815181840F951FC817D90759F4C4
S1130E0088819981840F951F0296918380838A81BA
S1130E109B81938382832115310529F4F093410149
S1130E20E09340013DC0E901FB83EA834991599174
S1130E30C40FD51FEC17FD0761F480819181840FE5
S1130E40951F0296E90199838883828193819B830C
S1130E508A83E0E0F0E012968D919C9113970097BD
S1130E6019F0FD01DC01F7CF8D919C9111979D0143
S1130E702E5F3F4F820F931F20913E0130913F011F
S1130E802817390769F4309729F410924101109218
S1130E90400102C013821282B0933F01A0933E012D
S1130EA0DF91CF91089510E0C0E9D0E003C0FE01C6
S1110EB0BCDE2196C139D107D1F7F894FFCFEB
S1130EBE0000420120003200320004000F0009003D
S10F0ECE0100010000000059015A01005D
S9030000FC
